:100000000C94AA010C94C7010C94C7010C94C7016D
:100010000C94C7010C94851C0C94C7010C94C70167
:100020000C94C7010C94C7010C94C7010C94C70130
:100030000C94C7010C94C7010C94C7010C94C70120
:100040000C94C7010C94C7010C94C7010C94C70110
:100050000C94C701000000000000000000005F00D9
:1000600000000000000007000700000000147F14DB
:100070007F14000000242A7F2A12000000231308A6
:10008000646200000036495522500000000005035C
:1000900000000000001C2241000000000041221C62
:1000A0000000000000082A1C2A0800000008083E82
:1000B0000808000000A06000000000000008080818
:1000C0000808000000606000000000000020100828
:1000D00004020000003E5149453E00000000427FFE
:1000E0004000000000625149494600000022414999
:1000F00049360000001814127F1000000027454503
:1001000045390000003C4A494930000000017109AE
:1001100005030000003649494936000000064949F8
:10012000291E000000003636000000000000AC6C04
:100130000000000000081422410000000014141404
:1001400014140000004122140800000000020151B4
:100150000906000000324979413E0000007E09098D
:10016000097E0000007F494949360000003E4141B8
:1001700041220000007F4141221C0000007F4949CC
:1001800049410000007F090909010000003E41418A
:1001900051720000007F0808087F000000417F4185
:1001A00000000000002040413F010000007F0814D3
:1001B00022410000007F404040400000007F020CD0
:1001C000027F0000007F0408107F0000003E4141D4
:1001D000413E0000007F090909060000003E415130
:1001E000215E0000007F09192946000000264949C8
:1001F000493200000001017F01010000003F404042
:10020000403F0000001F2040201F0000003F4038FA
:10021000403F0000006314081463000000030478EA
:10022000040300000061514945430000007F414143
:100230000000000000020408102000000041417F7F
:100240000000000000040201020400000080808021
:1002500080800000000102040000000000205454CF
:1002600054780000007F484444380000003844447B
:100270002800000000384444487F000000385454EF
:100280005418000000087E09020000000018A4A411
:10029000A47C0000007F08040478000000007D00BA
:1002A000000000000080847D00000000007F102816
:1002B0004400000000417F4000000000007C041862
:1002C00004780000007C08047C00000000384444EE
:1002D0003800000000FC242418000000001824242A
:1002E000FC00000000007C0804000000004854549A
:1002F0002400000000047F4400000000003C404057
:100300007C000000001C2040201C0000003C40300D
:10031000403C00000044281028440000001CA0A01D
:100320007C000000004464544C4400000008364146
:100330000000000000007F000000000000413608BF
:10034000000000000002010102010000000205059A
:100350000200000011241FBECFE5D8E0DEBFCDBFF4
:1003600010E0A0E6B0E0E4E0F4E402C005900D92F5
:10037000A63BB107D9F710E0A6EBB0E001C01D9293
:10038000AF3BB107E1F70E942D110C9400220C94B1
:100390000000CF93DF93CDB7DEB781E460E040E0AB
:1003A0000E946B0286E290E026E230E0F9012081B3
:1003B0002068FC01208386E290E026E230E0F9012B
:1003C00020812260FC01208386E290E026E230E07A
:1003D000F90120812460FC01208387E290E027E27C
:1003E00030E0F90120812064FC01208387E290E065
:1003F00027E230E0F90120812068FC012083DF91B1
:10040000CF910895CF93DF9300D0CDB7DEB786E2CA
:1004100090E026E230E0F90120812064FC01208395
:10042000000086E290E0FC018081882F90E08071DE
:1004300090709595879595958795959587959595C0
:1004400087958130910569F384E290E0FC01808119
:10045000882F90E09A83898385E290E0FC01808177
:10046000882F90E0982F882729813A81822B932B1F
:100470009A83898386E290E026E230E0F9012081C8
:100480002061FC01208389819A810F900F90DF9178
:10049000CF910895CF93DF9300D0CDB7DEB7898396
:1004A0006A8389816A8140E00E946B020F900F90FD
:1004B000DF91CF910895CF93DF9300D0CDB7DEB712
:1004C00089836A8389816A810E9439040F900F9021
:1004D000DF91CF910895CF93DF9300D00F92CDB7E6
:1004E000DEB789836A834B838981882F90E08234C9
:1004F000910509F440C08334910524F481349105B9
:1005000051F0C9C08334910509F465C08434910564
:1005100009F491C0C0C08B818130B1F48AE390E0CE
:100520002AE330E0F9012081622F2A81422F50E036
:1005300021E030E0042E02C0220F331F0A94E2F7BC
:10054000262BFC012083A8C08AE390E02AE330E058
:10055000F9012081622F2A81422F50E021E030E012
:10056000042E02C0220F331F0A94E2F7209526239F
:10057000FC01208391C08B818130B1F487E390E04E
:1005800027E330E0F9012081622F2A81422F50E0D9
:1005900021E030E0042E02C0220F331F0A94E2F75C
:1005A000262BFC01208378C087E390E027E330E02E
:1005B000F9012081622F2A81422F50E021E030E0B2
:1005C000042E02C0220F331F0A94E2F7209526233F
:1005D000FC01208361C08B818130B1F484E390E021
:1005E00024E330E0F9012081622F2A81422F50E07C
:1005F00021E030E0042E02C0220F331F0A94E2F7FC
:10060000262BFC01208348C084E390E024E330E003
:10061000F9012081622F2A81422F50E021E030E051
:10062000042E02C0220F331F0A94E2F720952623DE
:10063000FC01208331C08B818130B1F481E390E0F3
:1006400021E330E0F9012081622F2A81422F50E01E
:1006500021E030E0042E02C0220F331F0A94E2F79B
:10066000262BFC01208318C081E390E021E330E0D9
:10067000F9012081622F2A81422F50E021E030E0F1
:10068000042E02C0220F331F0A94E2F7209526237E
:10069000FC01208301C000000F900F900F90DF91AC
:1006A000CF910895CF93DF9300D00F92CDB7DEB7EF
:1006B00089836A834B838981882F90E082349105F6
:1006C00009F440C08334910524F48134910551F03C
:1006D000C9C08334910509F465C08434910509F4D7
:1006E00091C0C0C08B818130B1F48BE390E02BE3EB
:1006F00030E0F9012081622F2A81422F50E021E071
:1007000030E0042E02C0220F331F0A94E2F7262B9A
:10071000FC012083A8C08BE390E02BE330E0F901DB
:100720002081622F2A81422F50E021E030E0042E08
:1007300002C0220F331F0A94E2F720952623FC0102
:10074000208391C08B818130B1F488E390E028E36D
:1007500030E0F9012081622F2A81422F50E021E010
:1007600030E0042E02C0220F331F0A94E2F7262B3A
:10077000FC01208378C088E390E028E330E0F901B1
:100780002081622F2A81422F50E021E030E0042EA8
:1007900002C0220F331F0A94E2F720952623FC01A2
:1007A000208361C08B818130B1F485E390E025E343
:1007B00030E0F9012081622F2A81422F50E021E0B0
:1007C00030E0042E02C0220F331F0A94E2F7262BDA
:1007D000FC01208348C085E390E025E330E0F90187
:1007E0002081622F2A81422F50E021E030E0042E48
:1007F00002C0220F331F0A94E2F720952623FC0142
:10080000208331C08B818130B1F482E390E022E318
:1008100030E0F9012081622F2A81422F50E021E04F
:1008200030E0042E02C0220F331F0A94E2F7262B79
:10083000FC01208318C082E390E022E330E0F9015C
:100840002081622F2A81422F50E021E030E0042EE7
:1008500002C0220F331F0A94E2F720952623FC01E1
:10086000208301C000000F900F900F90DF91CF9177
:100870000895CF93DF9300D00F92CDB7DEB78A8370
:100880006B8319828A81882F90E08234910571F1FF
:100890008334910524F48134910551F081C083346F
:1008A000910509F441C08434910509F45BC078C016
:1008B00089E390E0FC018081282F30E08B81482F74
:1008C00050E081E090E0042E02C0880F991F0A9446
:1008D000E2F7822393232B81222F30E0022E02C0E5
:1008E000959587950A94E2F789835BC086E390E04B
:1008F000FC018081282F30E08B81482F50E081E07F
:1009000090E0042E02C0880F991F0A94E2F7822318
:1009100093232B81222F30E0022E02C095958795DC
:100920000A94E2F789833DC083E390E0FC01808173
:10093000282F30E08B81482F50E081E090E0042E9A
:1009400002C0880F991F0A94E2F7822393232B8118
:10095000222F30E0022E02C0959587950A94E2F787
:1009600089831FC080E390E0FC018081282F30E064
:100970008B81482F50E081E090E0042E02C0880F68
:10098000991F0A94E2F7822393232B81222F30E0D0
:10099000022E02C0959587950A94E2F7898301C0DB
:1009A000000089810F900F900F90DF91CF910895F3
:1009B000CF93DF9300D0CDB7DEB789836A83898177
:1009C000882F90E08234910529F18334910524F435
:1009D0008134910549F060C08334910589F18434F4
:1009E000910509F443C058C08BE390E02BE330E05D
:1009F000F9012081622F2A81422F50E021E030E06E
:100A0000042E02C0220F331F0A94E2F72627FC01AE
:100A1000208343C088E390E028E330E0F90120819F
:100A2000622F2A81422F50E021E030E0042E02C0E4
:100A3000220F331F0A94E2F72627FC0120832DC0E2
:100A400085E390E025E330E0F9012081622F2A81DF
:100A5000422F50E021E030E0042E02C0220F331F6D
:100A60000A94E2F72627FC01208317C082E390E076
:100A700022E330E0F9012081622F2A81422F50E0E9
:100A800021E030E0042E02C0220F331F0A94E2F767
:100A90002627FC01208301C000000F900F90DF91FA
:100AA000CF910895CF93DF9300D0CDB7DEB7898380
:100AB0006A838981882F90E082349105A1F0833484
:100AC000910524F48134910541F01FC083349105D0
:100AD00081F08434910599F018C08AE390E02A816E
:100AE000FC01208313C087E390E02A81FC0120836E
:100AF0000DC084E390E02A81FC01208307C081E3DC
:100B000090E02A81FC01208301C000000F900F902B
:100B1000DF91CF910895CF93DF9300D0CDB7DEB7AB
:100B200089836A838981882F90E082349105A1F0BE
:100B30008334910524F48134910541F01FC083343E
:100B4000910581F08434910599F018C08BE390E011
:100B50002A81FC01208313C088E390E02A81FC01F4
:100B600020830DC085E390E02A81FC01208307C02B
:100B700082E390E02A81FC01208301C000000F90F5
:100B80000F90DF91CF910895CF93DF9300D0CDB731
:100B9000DEB78A8319828A81882F90E0823491059A
:100BA000A1F08334910524F48134910541F01FC0F4
:100BB0008334910581F08434910599F018C089E35C
:100BC00090E0FC018081898313C086E390E0FC0102
:100BD000808189830DC083E390E0FC01808189835B
:100BE00007C080E390E0FC018081898301C00000A0
:100BF00089810F900F90DF91CF910895CF93DF936C
:100C000000D00F92CDB7DEB789836A834B83898189
:100C1000882F90E08234910509F440C08334910517
:100C200024F48134910551F0C9C08334910509F44D
:100C300065C08434910509F491C0C0C08B818130B6
:100C4000B1F48BE390E02BE330E0F9012081622FD7
:100C50002A81422F50E021E030E0042E02C0220F12
:100C6000331F0A94E2F7262BFC012083A7C08BE3F5
:100C700090E02BE330E0F9012081622F2A81422F9E
:100C800050E021E030E0042E02C0220F331F0A940E
:100C9000E2F720952623FC01208390C08B818130D0
:100CA000B1F488E390E028E330E0F9012081622F7D
:100CB0002A81422F50E021E030E0042E02C0220FB2
:100CC000331F0A94E2F7262BFC01208377C088E3C8
:100CD00090E028E330E0F9012081622F2A81422F41
:100CE00050E021E030E0042E02C0220F331F0A94AE
:100CF000E2F720952623FC01208360C08B818130A0
:100D0000B1F485E390E025E330E0F9012081622F22
:100D10002A81422F50E021E030E0042E02C0220F51
:100D2000331F0A94E2F7262BFC01208347C085E39A
:100D300090E025E330E0F9012081622F2A81422FE3
:100D400050E021E030E0042E02C0220F331F0A944D
:100D5000E2F720952623FC01208330C08B8181306F
:100D6000B1F482E390E022E330E0F9012081622FC8
:100D70002A81422F50E021E030E0042E02C0220FF1
:100D8000331F0A94E2F7262BFC01208316C082E36E
:100D900090E022E330E0F9012081622F2A81422F86
:100DA00050E021E030E0042E02C0220F331F0A94ED
:100DB000E2F720952623FC01208300000F900F907E
:100DC0000F90DF91CF910895CF93DF9300D0CDB7EF
:100DD000DEB789836A838A818F708A838981882FAD
:100DE00090E08234910509F18334910524F4813433
:100DF000910541F053C08334910551F1843491053C
:100E0000D1F14CC08BE390E02BE330E0F90120817D
:100E1000207FFC0120838BE390E02BE330E0F9019D
:100E200030812A81232BFC01208388E390E028E392
:100E300030E0F9012081207FFC01208388E390E0ED
:100E400028E330E0F90130812A81232BFC01208343
:100E500085E390E025E330E0F9012081207FFC016B
:100E6000208385E390E025E330E0F90130812A8199
:100E7000232BFC01208382E390E022E330E0F901A0
:100E80002081207FFC01208382E390E022E330E098
:100E9000F90130812A81232BFC0120830F900F90D0
:100EA000DF91CF910895CF93DF9300D0CDB7DEB718
:100EB00089836A838A818295807F8A838981882F4A
:100EC00090E08234910509F18334910524F4813452
:100ED000910541F053C08334910551F1843491055B
:100EE000D1F14CC08BE390E02BE330E0F90120819D
:100EF0002F70FC0120838BE390E02BE330E0F901BD
:100F000030812A81232BFC01208388E390E028E3B1
:100F100030E0F90120812F70FC01208388E390E00C
:100F200028E330E0F90130812A81232BFC01208362
:100F300085E390E025E330E0F90120812F70FC018A
:100F4000208385E390E025E330E0F90130812A81B8
:100F5000232BFC01208382E390E022E330E0F901BF
:100F600020812F70FC01208382E390E022E330E0B7
:100F7000F90130812A81232BFC0120830F900F90EF
:100F8000DF91CF9108950F931F93CF93DF9300D0FC
:100F900000D0CDB7DEB769837A838B839C8300E270
:100FA00010E080E092E1AAE7B0E029813A814B812C
:100FB0005C81BC01CD010E94DE21DA01C9014097AC
:100FC000A109B109B695A79597958795F8018083F2
:100FD00081E290E0FC01108286E590E026E530E0B9
:100FE000F90120812460FC0120830F900F900F9065
:100FF0000F90DF91CF911F910F910895CF93DF93C1
:10100000CDB7DEB786E590E026E530E0F901208136
:101010002062FC012083000086E590E0FC018081D5
:10102000881F8827881F882F90E090700097A1F371
:1010300081E290E0FC018081DF91CF910895CF9310
:10104000DF93CDB7DEB786E590E026E530E0F90125
:1010500020812062FC012083000086E590E0FC01F5
:101060008081881F8827881F882F90E090700097C4
:10107000A1F381E290E0FC018081DF91CF9108959E
:10108000CF93DF930F92CDB7DEB7898383E290E0F1
:101090002981FC01208386E590E026E530E0F90116
:1010A00020812068FC012083000086E590E0FC019F
:1010B0008081881F8827881F882F90E09070009774
:1010C000A1F381E290E0FC0180810F90DF91CF914C
:1010D0000895CF93DF930F92CDB7DEB7898383E274
:1010E00090E02981FC01208386E590E026E530E050
:1010F000F90120812068FC012083000086E590E052
:10110000FC018081881F8827881F882F90E09070BD
:101110000097A1F381E290E0FC0180810F90DF91C4
:10112000CF910895CF93DF93CDB7DEB786E590E0FA
:1011300024E9FC012083DF91CF910895CF93DF93C1
:101140000F92CDB7DEB7898382E290E02981FC015E
:1011500020830F90DF91CF910895CF93DF93CDB788
:10116000DEB786E590E026E530E0F9012081246CC9
:10117000FC012083000086E590E0FC018081881F4F
:101180008827881F882F90E090700097A1F381E254
:1011900090E0FC01808186E590E026E530E0F901F1
:1011A00020812068FC012083000086E590E0FC019E
:1011B0008081881F8827881F882F90E09070009773
:1011C000A1F381E290E0FC01808183E290E0FC01E8
:1011D0008081DF91CF910895CF93DF930F92CDB7A8
:1011E000DEB7898383E290E02981FC01208386E5D4
:1011F00090E024E8FC012083000086E590E0FC01FB
:101200008081881F8827881F882F90E09070009722
:10121000A1F381E290E0FC0180810F90DF91CF91FA
:101220000895CF93DF93CDB7DEB786E590E024E84D
:10123000FC012083000086E590E0FC018081881F8E
:101240008827881F882F90E090700097A1F381E293
:1012500090E0FC01808183E290E0FC018081DF91DD
:10126000CF910895CF93DF93CDB7DEB786E590E0B9
:1012700024E8FC012083000086E590E0FC018081E9
:10128000881F8827881F882F90E090700097A1F30F
:1012900081E290E0FC01808183E290E0FC018081AA
:1012A000DF91CF9108950F931F93CF93DF93CDB725
:1012B000DEB7C455D0400FB6F894DEBF0FBECDBF29
:1012C00080E090E0A6E9B3E489839A83AB83BC8392
:1012D00069817A818B819C8120E030E04AEF54E47F
:1012E0000E943321DC01CB018D839E83AF83B887BD
:1012F00011E06D817E818F81988520E030E040E8AB
:101300005FE30E94752088230CF010E0112329F080
:1013100081E090E09A87898746C011E06D817E81E7
:101320008F81988520E03FEF4FE757E40E942F21FF
:1013300018160CF010E0112361F169817A818B811C
:101340009C8120E030E040E251E40E943321DC0146
:10135000CB01BC01CD010E947920DC01CB019A8731
:10136000898712C088EC90E09C878B878B859C8551
:101370008C01C8010197F1F78C011C870B878985C7
:101380009A8501979A87898789859A85009751F769
:1013900017C06D817E818F8198850E947920DC0144
:1013A000CB019A87898789859A859E878D878D85C8
:1013B0009E858C01F8013197F1F78F011E870D870B
:1013C00081E464E041E00E946B0281E465E041E079
:1013D0000E946B0281E466E041E00E946B0281E4BE
:1013E00067E041E00E946B0281E460E041E00E941E
:1013F0006B0281E461E041E00E946B0281E462E003
:1014000041E00E946B0281E461E040E00E945203EF
:1014100082E00E94590E80E090E0A0E2B1E48F8764
:10142000988BA98BBA8B6F85788989899A8920E0F6
:1014300030E04AEF54E40E943321DC01CB018B8B76
:101440009C8BAD8BBE8B11E06B897C898D899E89CD
:1014500020E030E040E85FE30E94752088230CF034
:1014600010E0112329F081E090E0988F8F8B46C027
:1014700011E06B897C898D899E8920E03FEF4FE7E1
:1014800057E40E942F2118160CF010E0112361F18F
:101490006F85788989899A8920E030E040E251E4BB
:1014A0000E943321DC01CB01BC01CD010E947920D7
:1014B000DC01CB01988F8F8B12C088EC90E09A8F63
:1014C000898F898D9A8D8C01C8010197F1F78C0164
:1014D0001A8F098F8F89988D0197988F8F8B8F899D
:1014E000988D009751F717C06B897C898D899E89EB
:1014F0000E947920DC01CB01988F8F8B8F89988D8A
:101500009C8F8B8F8B8D9C8D8C01F8013197F1F71F
:101510008F011C8F0B8F88E20E94590E80E090E0B3
:10152000A0E8BFE38D8F9E8FAF8FB8A36D8D7E8DAA
:101530008F8D98A120E030E04AEF54E40E943321DF
:10154000DC01CB0189A39AA3ABA3BCA311E069A1E1
:101550007AA18BA19CA120E030E040E85FE30E94EB
:10156000752088230CF010E0112329F081E090E031
:101570009EA38DA346C011E069A17AA18BA19CA175
:1015800020E03FEF4FE757E40E942F2118160CF0A0
:1015900010E0112361F16D8D7E8D8F8D98A120E07B
:1015A00030E040E251E40E943321DC01CB01BC0178
:1015B000CD010E947920DC01CB019EA38DA312C036
:1015C00088EC90E098A78FA38FA198A58C01C80103
:1015D0000197F1F78C0118A70FA38DA19EA1019788
:1015E0009EA38DA38DA19EA1009751F717C069A15D
:1015F0007AA18BA19CA10E947920DC01CB019EA342
:101600008DA38DA19EA19AA789A789A59AA58C01D2
:10161000F8013197F1F78F011AA709A78EE00E9410
:10162000590E80E090E0A0E8BFE38BA79CA7ADA790
:10163000BEA76BA57CA58DA59EA520E030E04AEF56
:1016400054E40E943321DC01CB018FA798ABA9ABF6
:10165000BAAB11E06FA578A989A99AA920E030E07A
:1016600040E85FE30E94752088230CF010E011230E
:1016700029F081E090E09CAB8BAB46C011E06FA5F8
:1016800078A989A99AA920E03FEF4FE757E40E9483
:101690002F2118160CF010E0112361F16BA57CA529
:1016A0008DA59EA520E030E040E251E40E94332168
:1016B000DC01CB01BC01CD010E947920DC01CB0112
:1016C0009CAB8BAB12C088EC90E09EAB8DAB8DA930
:1016D0009EA98C01C8010197F1F78C011EAB0DABDF
:1016E0008BA99CA901979CAB8BAB8BA99CA900975C
:1016F00051F717C06FA578A989A99AA90E947920E6
:10170000DC01CB019CAB8BAB8BA99CA998AF8FABB9
:101710008FA998AD8C01F8013197F1F78F0118AFBF
:101720000FAB81E00E94590E80E090E0A0E2B1E4AE
:1017300089AF9AAFABAFBCAF69AD7AAD8BAD9CADA5
:1017400020E030E04AEF54E40E943321DC01CB0179
:101750009E01235C3F4FF90180839183A283B38371
:1017600011E0CE01CD96FC0160817181828193816F
:1017700020E030E040E85FE30E94752088230CF011
:1017800010E0112349F0CE018F5B9F4F21E030E044
:10179000FC01318320836EC011E0CE01CD96FC01A7
:1017A000608171818281938120E03FEF4FE757E4B0
:1017B0000E942F2118160CF010E0112309F449C0E3
:1017C00069AD7AAD8BAD9CAD20E030E040E251E4F4
:1017D0000E943321DC01CB018E010F5B1F4FBC0146
:1017E000CD010E947920DC01CB01F8019183808337
:1017F00027C0CE018D5B9F4F28EC30E0FC01318388
:101800002083CE018D5B9F4FFC01808191818C01F3
:10181000C8010197F1F78C01CE018D5B9F4FFC0150
:1018200011830083CE018F5B9F4F9E012F5B3F4F43
:10183000F9012081318121503040FC013183208326
:10184000CE018F5B9F4FFC0180819181009789F6CB
:101850002EC08E010F5B1F4FCE01CD96FC01608123
:101860007181828193810E947920DC01CB01F80192
:1018700091838083CE018B5B9F4F9E012F5B3F4FF7
:10188000F90120813181FC0131832083CE018B5B02
:101890009F4FFC01808191818C01C8010197F1F774
:1018A0008C01CE018B5B9F4FFC011183008386E08E
:1018B0000E94590E9E01295B3F4F80E090E0A0E816
:1018C000BFE3F90180839183A283B3838E01055B1B
:1018D0001F4FCE01895B9F4FFC0160817181828126
:1018E000938120E030E04AEF54E40E943321DC0190
:1018F000CB01F80180839183A283B383CE01855B02
:101900009F4F11E0FC01608171818281938120E011
:1019100030E040E85FE30E94752088230CF010E07F
:10192000112349F0CE01815B9F4F21E030E0FC01A3
:101930003183208374C0CE01855B9F4F11E0FC0191
:10194000608171818281938120E03FEF4FE757E40E
:101950000E942F2118160CF010E0112309F44DC03D
:10196000CE01895B9F4FFC016081718182819381EF
:1019700020E030E040E251E40E943321DC01CB0161
:101980008E01015B1F4FBC01CD010E947920DC015B
:10199000CB01F8019183808327C0CE018F5A9F4FDE
:1019A00028EC30E0FC0131832083CE018F5A9F4F19
:1019B000FC01808191818C01C8010197F1F78C01B4
:1019C000CE018F5A9F4FFC0111830083CE01815BB2
:1019D0009F4F9E01215B3F4FF901208131812150B2
:1019E0003040FC0131832083CE01815B9F4FFC019D
:1019F00080819181009789F62FC08E01015B1F4F76
:101A0000CE01855B9F4FFC01608171818281938152
:101A10000E947920DC01CB01F80191838083CE0103
:101A20008D5A9F4F9E01215B3F4FF90120813181EB
:101A3000FC0131832083CE018D5A9F4FFC018081B0
:101A400091818C01C8010197F1F78C01CE018D5A6B
:101A50009F4FFC0111830083CC5ADF4F0FB6F894DF
:101A6000DEBF0FBECDBFDF91CF911F910F910895C3
:101A70000F931F93CF93DF93CDB7DEB76C970FB65D
:101A8000F894DEBF0FBECDBF81E460E041E00E946C
:101A9000520380E090E0A0E0B0E489839A83AB83B6
:101AA000BC8369817A818B819C8120E030E04AEFA0
:101AB00054E40E943321DC01CB018D839E83AF83EC
:101AC000B88711E06D817E818F81988520E030E0BC
:101AD00040E85FE30E94752088230CF010E011239A
:101AE00029F081E090E09A87898746C011E06D81F6
:101AF0007E818F81988520E03FEF4FE757E40E9479
:101B00002F2118160CF010E0112361F169817A8100
:101B10008B819C8120E030E040E251E40E9433213F
:101B2000DC01CB01BC01CD010E947920DC01CB019D
:101B30009A87898712C088EC90E09C878B878B8579
:101B40009C858C01C8010197F1F78C011C870B87DC
:101B500089859A8501979A87898789859A850097CB
:101B600051F717C06D817E818F8198850E94792001
:101B7000DC01CB019A87898789859A859E878D8725
:101B80008D859E858C01C8010197F1F78C011E8718
:101B90000D8781E460E040E00E94520380E090E025
:101BA000A0E0B0E48F87988BA98BBA8B6F8578897A
:101BB00089899A8920E030E04AEF54E40E94332179
:101BC000DC01CB018B8B9C8BAD8BBE8B11E06B89C9
:101BD0007C898D899E8920E030E040E85FE30E94A7
:101BE000752088230CF010E0112329F081E090E0AB
:101BF000988F8F8B46C011E06B897C898D899E8977
:101C000020E03FEF4FE757E40E942F2118160CF019
:101C100010E0112361F16F85788989899A8920E024
:101C200030E040E251E40E943321DC01CB01BC01F1
:101C3000CD010E947920DC01CB01988F8F8B12C0DF
:101C400088EC90E09A8F898F898D9A8D8C01C801DC
:101C50000197F1F78C011A8F098F8F89988D019761
:101C6000988F8F8B8F89988D009751F717C06B894C
:101C70007C898D899E890E947920DC01CB01988F17
:101C80008F8B8F89988D9C8F8B8F8B8D9C8D8C01EA
:101C9000C8010197F1F78C011C8F0B8F6C960FB662
:101CA000F894DEBF0FBECDBFDF91CF911F910F9192
:101CB00008950F931F93CF93DF93CDB7DEB72F9780
:101CC0000FB6F894DEBF0FBECDBF8F878F85982FDC
:101CD00092959F7081E4692F0E94530781E462E02E
:101CE00040E00E9452030E94380D81E46F850E94FB
:101CF000530781E462E040E00E9452030E94380DE5
:101D000080E090E0A0E8BFE389839A83AB83BC8343
:101D100069817A818B819C8120E030E04AEF54E434
:101D20000E943321DC01CB018D839E83AF83B88772
:101D300011E06D817E818F81988520E030E040E860
:101D40005FE30E94752088230CF010E0112329F036
:101D500081E090E09A87898746C011E06D817E819D
:101D60008F81988520E03FEF4FE757E40E942F21B5
:101D700018160CF010E0112361F169817A818B81D2
:101D80009C8120E030E040E251E40E943321DC01FC
:101D9000CB01BC01CD010E947920DC01CB019A87E7
:101DA000898712C088EC90E09C878B878B859C8507
:101DB0008C01C8010197F1F78C011C870B8789857D
:101DC0009A8501979A87898789859A85009751F71F
:101DD00017C06D817E818F8198850E947920DC01FA
:101DE000CB019A87898789859A859E878D878D857E
:101DF0009E858C01C8010197F1F78C011E870D8724
:101E00002F960FB6F894DEBF0FBECDBFDF91CF91F6
:101E10001F910F9108950F931F93CF93DF93CDB729
:101E2000DEB72F970FB6F894DEBF0FBECDBF8F87FA
:101E30008F85982F92959F7081E4692F0E94530798
:101E400081E462E041E00E9452030E94380D81E487
:101E50006F850E94530781E462E041E00E945203D3
:101E60000E94380D80E090E0A0E8BFE389839A8368
:101E7000AB83BC8369817A818B819C8120E030E0D7
:101E80004AEF54E40E943321DC01CB018D839E8311
:101E9000AF83B88711E06D817E818F81988520E0C6
:101EA00030E040E85FE30E94752088230CF010E0EA
:101EB000112329F081E090E09A87898746C011E0DC
:101EC0006D817E818F81988520E03FEF4FE757E459
:101ED0000E942F2118160CF010E0112361F1698186
:101EE0007A818B819C8120E030E040E251E40E94C5
:101EF0003321DC01CB01BC01CD010E947920DC0142
:101F0000CB019A87898712C088EC90E09C878B87E9
:101F10008B859C858C01C8010197F1F78C011C878A
:101F20000B8789859A8501979A87898789859A85FC
:101F3000009751F717C06D817E818F8198850E942F
:101F40007920DC01CB019A87898789859A859E87CC
:101F50008D878D859E858C01C8010197F1F78C01D5
:101F60001E870D872F960FB6F894DEBF0FBECDBF2C
:101F7000DF91CF911F910F910895CF93DF9300D000
:101F8000CDB7DEB79A8389830BC089819A81FC0122
:101F900080810E940B0F89819A8101969A8389839F
:101FA00089819A81FC018081882379F70F900F90B5
:101FB000DF91CF9108950F931F93CF93DF93CDB708
:101FC000DEB72E970FB6F894DEBF0FBECDBF81E00F
:101FD0000E94590E80E090E0A0E2B1E489839A83E8
:101FE000AB83BC8369817A818B819C8120E030E066
:101FF0004AEF54E40E943321DC01CB018D839E83A0
:10200000AF83B88711E06D817E818F81988520E054
:1020100030E040E85FE30E94752088230CF010E078
:10202000112329F081E090E09A87898746C011E06A
:102030006D817E818F81988520E03FEF4FE757E4E7
:102040000E942F2118160CF010E0112361F1698114
:102050007A818B819C8120E030E040E251E40E9453
:102060003321DC01CB01BC01CD010E947920DC01D0
:10207000CB019A87898712C088EC90E09C878B8778
:102080008B859C858C01C8010197F1F78C011C8719
:102090000B8789859A8501979A87898789859A858B
:1020A000009751F717C06D817E818F8198850E94BE
:1020B0007920DC01CB019A87898789859A859E875B
:1020C0008D878D859E858C01C8010197F1F78C0164
:1020D0001E870D872E960FB6F894DEBF0FBECDBFBC
:1020E000DF91CF911F910F9108950F931F93CF937D
:1020F000DF93CDB7DEB761970FB6F894DEBF0FBEA2
:10210000CDBF888B698B8889833048F48889882380
:1021100031F08989813118F48989882319F480E89C
:1021200089830DC08889813021F489898158898308
:1021300006C08889823019F489898154898389810C
:102140000E94590E80E090E0A0E8BFE38A839B8361
:10215000AC83BD836A817B818C819D8120E030E0EE
:102160004AEF54E40E943321DC01CB018E839F832C
:10217000A887B98711E06E817F818885998520E0E5
:1021800030E040E85FE30E94752088230CF010E007
:10219000112329F081E090E09B878A8746C011E0F7
:1021A0006E817F818885998520E03FEF4FE757E476
:1021B0000E942F2118160CF010E0112361F16A81A2
:1021C0007B818C819D8120E030E040E251E40E94DF
:1021D0003321DC01CB01BC01CD010E947920DC015F
:1021E000CB019B878A8712C088EC90E09D878C8703
:1021F0008C859D858C01C8010197F1F78C011D87A5
:102200000C878A859B8501979B878A878A859B8512
:10221000009751F717C06E817F81888599850E944C
:102220007920DC01CB019B878A878A859B859F87E4
:102230008E878E859F858C01C8010197F1F78C01EF
:102240001F870E8761960FB6F894DEBF0FBECDBF15
:10225000DF91CF911F910F910895CF93DF93CDB769
:10226000DEB760E87AE186E090E00E94C3070E9452
:10227000521F88E78093B5000E94C90182E490E074
:1022800060E070E00E944A0282E490E061E070E069
:102290000E944A0282E490E062E070E00E944A02FA
:1022A00082E490E063E070E00E944A0282E490E001
:1022B00066E070E00E944A0282E490E060E070E034
:1022C00041E050E00E94FE0582E490E061E070E0B1
:1022D00041E050E00E94FE0582E490E062E070E0A0
:1022E00041E050E00E94FE0582E490E063E070E08F
:1022F00041E050E00E94FE0582E490E066E070E07C
:1023000041E050E00E94FE050E94EE1C0E94FD1D6F
:1023100080E790E060E070E043E050E00E94FE1E45
:1023200001C000000E940202AA2797FDA095BA2FC3
:10233000BC01CD010E94A720DC01CB01BC01CD0175
:1023400020E030E040E85EE30E943321DC01CB0175
:10235000BC01CD010E947920DC01CB019093B70034
:102360008093B6008091B6009091B7008A309105B5
:10237000B8F48091B6009091B700805D60E070E0A5
:1023800048E050E00E94361E83E460E070E049E0DF
:1023900050E00E94361E86E790E00E94B41E8DC079
:1023A0008091B6009091B70084369105A8F5809190
:1023B000B6009091B7008A30910570F18091B60017
:1023C0009091B7002AE030E0B9010E94CA219B0138
:1023D000C901805D60E070E048E050E00E94361E78
:1023E0008091B6009091B7002AE030E0B9010E94D8
:1023F000CA21805D60E070E049E050E00E94361E36
:1024000083E460E070E04AE050E00E94361E8AE714
:1024100090E00E94B41E51C08091B6009091B70028
:1024200023E0883E920708F048C08091B600909162
:10243000B7008436910508F440C08091B6009091B1
:10244000B70024E630E0B9010E94CA219B01C9010E
:10245000805D60E070E048E050E00E94361E8091B0
:10246000B6009091B7002AE030E0B9010E94CA217D
:102470009B01C9012AE030E0B9010E94CA21805DB8
:1024800060E070E049E050E00E94361E8091B600A6
:102490009091B7002AE030E0B9010E94CA21805D26
:1024A00060E070E04AE050E00E94361E83E460E0A5
:1024B00070E04BE050E00E94361E8091B8008C33F3
:1024C00038F08091B9008F5F8093B9001092B80006
:1024D0008091B9008C3338F08091BA008F5F80937F
:1024E000BA001092B9008091BA00883138F0109289
:1024F000BA00809164008F5F8093640080916400D3
:102500008F3140F081E080936400809165008F5F9F
:1025100080936500809165008C3060F081E080934D
:102520006500809166009091670001969093670026
:10253000809366008091BA009AE0692F0E94BE21C4
:10254000805D90916000492F50E090916100292FAB
:1025500030E0BA01A9010E94361E8091BA009AE0CB
:10256000692F0E94BE21892F682F605D80916000D5
:10257000482F50E080916100882F90E09C012F5FF0
:102580003F4F862FBA01A9010E94361E809160003C
:10259000482F50E080916100882F90E09C012E5FD1
:1025A0003F4F8AE3BA01A9010E94361E8091B9000B
:1025B0009AE0692F0E94BE21682F605D80916000C3
:1025C000482F50E080916100882F90E09C012D5FA2
:1025D0003F4F862FBA01A9010E94361E8091B90093
:1025E0009AE0692F0E94BE21892F682F605D80913B
:1025F0006000482F50E080916100882F90E09C019E
:102600002C5F3F4F862FBA01A9010E94361E809190
:102610006000482F50E080916100882F90E09C017D
:102620002B5F3F4F8AE3BA01A9010E94361E8091B9
:10263000B8009AE0692F0E94BE21682F605D8091EA
:102640006000482F50E080916100882F90E09C014D
:102650002A5F3F4F862FBA01A9010E94361E809142
:10266000B8009AE0692F0E94BE21892F682F605D13
:1026700080916000482F50E080916100882F90E0A9
:102680009C01295F3F4F862FBA01A9010E94361E87
:10269000809166009091670028EE33E0B9010E94B6
:1026A000CA219B01C901805D90916200492F50E0D1
:1026B00090916300292F30E0BA01A9010E94361ED3
:1026C000809166009091670024E630E0B9010E9495
:1026D000CA219B01C9012AE030E0B9010E94CA2148
:1026E000682F605D80916200482F50E08091630008
:1026F000882F90E09C012F5F3F4F862FBA01A901E0
:102700000E94361E80916600909167002AE030E0BA
:10271000B9010E94CA219B01C9012AE030E0B90138
:102720000E94CA21682F605D80916200482F50E0AE
:1027300080916300882F90E09C012E5F3F4F862F91
:10274000BA01A9010E94361E80916600909167002F
:102750002AE030E0B9010E94CA21682F605D8091B3
:102760006200482F50E080916300882F90E09C0128
:102770002D5F3F4F862FBA01A9010E94361E80911E
:102780006200482F50E080916300882F90E09C0108
:102790002C5F3F4F8FE2BA01A9010E94361E809143
:1027A00065009AE0692F0E94BE21682F605D8091CC
:1027B0006200482F50E080916300882F90E09C01D8
:1027C0002B5F3F4F862FBA01A9010E94361E8091D0
:1027D00065009AE0692F0E94BE21892F682F605DF5
:1027E00080916200482F50E080916300882F90E034
:1027F0009C012A5F3F4F862FBA01A9010E94361E15
:1028000080916200482F50E080916300882F90E013
:102810009C01295F3F4F8FE2BA01A9010E94361E39
:10282000809164009AE0692F0E94BE21682F605D4C
:1028300080916200482F50E080916300882F90E0E3
:102840009C01285F3F4F862FBA01A9010E94361EC6
:10285000809164009AE0692F0E94BE21892F682F21
:10286000605D80916200482F50E080916300882F66
:1028700090E09C01275F3F4F862FBA01A9010E947B
:10288000361E82E490E060E070E00E945B0280937C
:10289000680082E490E061E070E00E945B02809357
:1028A000690082E490E062E070E00E945B02809345
:1028B0006A0082E490E063E070E00E945B02809333
:1028C0006B0082E490E066E070E00E945B0280931F
:1028D0006E0080916800813029F480916900813018
:1028E00009F420CD80916800882309F048C30E9434
:1028F000FD1D000082E490E060E070E00E945B0259
:102900000097C1F31092BB001092BC008CE790E0DE
:1029100063E070E044E050E00E94FE1E8091BB0046
:10292000805D63E070E04AE050E00E94361E82E481
:1029300090E060E070E00E945B028093680082E4B7
:1029400090E062E070E00E945B0280936A0082E4A3
:1029500090E063E070E00E945B0280936B008091E6
:102960006A00813041F480916B00813021F48091C4
:1029700068008130E1F2000082E490E063E070E002
:102980000E945B020097C1F382E490E062E070E095
:102990000E945B02009781F380916A00882391F482
:1029A0008091BB00823020F48091BC00853020F003
:1029B0008091BB00882331F48091BB008F5F8093AE
:1029C000BB000DC080916B00882349F48091BB004F
:1029D000882329F08091BB0081508093BB0082E462
:1029E00090E060E070E00E945B028130910509F4A4
:1029F00095CF000082E490E060E070E00E945B020E
:102A00000097C1F38091BC00805D63E070E04BE013
:102A100050E00E94361E82E490E060E070E00E9488
:102A20005B028093680082E490E062E070E00E94C4
:102A30005B0280936A0082E490E063E070E00E94B1
:102A40005B0280936B0082E490E066E070E00E949D
:102A50005B0280936E0080916A00813061F4809106
:102A60006B00813041F480916800813021F48091C5
:102A70006E00813081F2000082E490E063E070E05B
:102A80000E945B020097C1F382E490E062E070E094
:102A90000E945B02009781F382E490E066E070E0C0
:102AA0000E945B02009741F380916A008823B1F491
:102AB0008091BB00823021F48091BC00843040F0D2
:102AC0008091BB00823050F48091BC00893030F49A
:102AD0008091BC008F5F8093BC001AC080916B0016
:102AE000882351F48091BC00882331F08091BC0090
:102AF00081508093BC000CC080916E00882341F40B
:102B00008DE263E070E04BE050E00E94361E06CF9D
:102B100082E490E060E070E00E945B028130910509
:102B200009F470CF8091BB00880F982F990F990FEF
:102B3000980F8091BC00890F8093BA00000082E456
:102B400090E060E070E00E945B020097C1F30E9499
:102B5000FD1D1092BB001092BC0085E890E063E080
:102B600070E043E050E00E94FE1E8091BB00805D5B
:102B700063E070E04BE050E00E94361E82E490E09B
:102B800060E070E00E945B028093680082E490E065
:102B900062E070E00E945B0280936A0082E490E051
:102BA00063E070E00E945B0280936B0080916A009A
:102BB000813041F480916B00813021F48091680074
:102BC0008130E1F2000082E490E063E070E00E9476
:102BD0005B020097C1F382E490E062E070E00E9443
:102BE0005B02009781F380916A00882351F4809101
:102BF000BB00853030F48091BB008F5F8093BB00B9
:102C00000DC080916B00882349F48091BB0088231C
:102C100029F08091BB0081508093BB0080916800B7
:102C2000813009F4A2CF000082E490E060E070E01F
:102C30000E945B020097C1F38091BC00805D63E05D
:102C400070E04CE050E00E94361E82E490E060E0CC
:102C500070E00E945B028093680082E490E062E092
:102C600070E00E945B0280936A0082E490E063E07F
:102C700070E00E945B0280936B0082E490E066E06B
:102C800070E00E945B0280936E0080916A00813048
:102C900061F480916B00813041F480916800813053
:102CA00021F480916E00813081F2000082E490E096
:102CB00063E070E00E945B020097C1F382E490E061
:102CC00062E070E00E945B02009781F382E490E092
:102CD00066E070E00E945B02009741F380916A0019
:102CE000882351F48091BC00893030F48091BC007D
:102CF0008F5F8093BC001AC080916B00882351F4D1
:102D00008091BC00882331F08091BC008150809379
:102D1000BC000CC080916E00882341F48DE263E01A
:102D200070E04CE050E00E94361E1FCF809168009A
:102D3000813009F481CF8091BB00880F982F990FC3
:102D4000990F980F8091BC00890F8093B900000003
:102D500082E490E060E070E00E945B020097C1F3C3
:102D60000E94FD1D1092BB001092BC0080E990E013
:102D700063E070E043E050E00E94FE1E8091BB00E3
:102D8000805D63E070E04BE050E00E94361E82E41C
:102D900090E060E070E00E945B028093680082E453
:102DA00090E062E070E00E945B0280936A0082E43F
:102DB00090E063E070E00E945B0280936B00809182
:102DC0006A00813041F480916B00813021F4809160
:102DD00068008130E1F2000082E490E063E070E09E
:102DE0000E945B020097C1F382E490E062E070E031
:102DF0000E945B02009781F380916A00882351F45E
:102E00008091BB00853030F48091BB008F5F809350
:102E1000BB000DC080916B00882349F48091BB00FA
:102E2000882329F08091BB0081508093BB00809162
:102E30006800813009F4A2CF000082E490E060E0F5
:102E400070E00E945B020097C1F38091BC00805D3E
:102E500063E070E04CE050E00E94361E82E490E0B7
:102E600060E070E00E945B028093680082E490E082
:102E700062E070E00E945B0280936A0082E490E06E
:102E800063E070E00E945B0280936B0082E490E05C
:102E900066E070E00E945B0280936E0080916A00A1
:102EA000813061F480916B00813041F48091680041
:102EB000813021F480916E00813081F2000082E443
:102EC00090E063E070E00E945B020097C1F382E44F
:102ED00090E062E070E00E945B02009781F382E480
:102EE00090E066E070E00E945B02009741F3809101
:102EF0006A00882351F48091BC00893030F48091BD
:102F0000BC008F5F8093BC001AC080916B00882347
:102F100051F48091BC00882331F08091BC00815035
:102F20008093BC000CC080916E00882341F48DE238
:102F300063E070E04CE050E00E94361E1FCF82E458
:102F400090E060E070E00E945B028130910509F43E
:102F50007CCF8091BB00880F982F990F990F980F05
:102F60008091BC00890F8093B800000082E490E05B
:102F700060E070E00E945B020097C1F3C7C98091D6
:102F80006900882309F0CDC90E94FD1D000082E47C
:102F900090E061E070E00E945B020097C1F382E084
:102FA0008093BB001092BC0082E08093BD0084E05F
:102FB0008093BE008BE990E063E070E044E050E075
:102FC0000E94FE1E8091BB00805D63E070E049E0DE
:102FD00050E00E94361E82E490E061E070E00E94C2
:102FE0005B028093690082E490E062E070E00E94FE
:102FF0005B0280936A0082E490E063E070E00E94EC
:103000005B0280936B0080916A00813041F4809173
:103010006B00813021F4809169008130E1F2000081
:1030200082E490E063E070E00E945B020097C1F3ED
:1030300082E490E062E070E00E945B02009781F31E
:1030400080916A00882351F48091BB00823030F473
:103050008091BB008F5F8093BB000DC080916B009F
:10306000882349F48091BB00823028F08091BB0016
:1030700081508093BB0082E490E061E070E00E94A8
:103080005B028130910509F49DCF000082E490E05D
:1030900061E070E00E945B020097C1F38091BC0088
:1030A000805D63E070E04AE050E00E94361E82E4FA
:1030B00090E061E070E00E945B028093690082E42E
:1030C00090E062E070E00E945B0280936A0082E41C
:1030D00090E063E070E00E945B0280936B0082E40A
:1030E00090E066E070E00E945B0280936E00809149
:1030F0006A00813061F480916B00813041F48091ED
:103100006900813021F480916E00813081F20000ED
:1031100082E490E063E070E00E945B020097C1F3FC
:1031200082E490E062E070E00E945B02009781F32D
:1031300082E490E066E070E00E945B02009741F359
:1031400080916A00882351F48091BC00893030F46A
:103150008091BC008F5F8093BC001AC080916B008F
:10316000882351F48091BC00882331F08091BC0009
:1031700081508093BC000CC080916E00882341F484
:103180008DE263E070E04AE050E00E94361E1ACF04
:1031900082E490E061E070E00E945B028130910582
:1031A00009F47CCF000082E490E061E070E00E94CE
:1031B0005B020097C1F38091BD00805D63E070E029
:1031C0004BE050E00E94361E82E490E061E070E047
:1031D0000E945B028093690082E490E062E070E00C
:1031E0000E945B0280936A0082E490E063E070E0FA
:1031F0000E945B0280936B0082E490E066E070E0E6
:103200000E945B0280936E0080916A00813061F4BD
:1032100080916B00813041F480916900813021F40C
:1032200080916E00813081F2000082E490E063E0E2
:1032300070E00E945B020097C1F382E490E062E0DC
:1032400070E00E945B02009781F382E490E066E008
:1032500070E00E945B02009741F380916A0088232E
:1032600051F48091BD00893030F48091BD008F5FB2
:103270008093BD001AC080916B00882351F4809127
:10328000BD00882331F08091BD0081508093BD0046
:103290000CC080916E00882341F48DE263E070E001
:1032A0004BE050E00E94361EF9CE82E490E061E0EF
:1032B00070E00E945B028130910509F47CCF000030
:1032C00082E490E061E070E00E945B020097C1F34D
:1032D0008091BE00805D63E070E04CE050E00E94B1
:1032E000361E82E490E061E070E00E945B02809311
:1032F000690082E490E062E070E00E945B028093EB
:103300006A0082E490E063E070E00E945B028093D8
:103310006B0082E490E066E070E00E945B028093C4
:103320006E0080916A00813061F480916B00813081
:1033300041F480916900813021F480916E008130E8
:1033400081F2000082E490E063E070E00E945B02A2
:103350000097C1F382E490E062E070E00E945B02BB
:10336000009781F382E490E066E070E00E945B02E7
:10337000009741F380916A00882351F48091BE0048
:10338000893030F48091BE008F5F8093BE001AC0F8
:1033900080916B00882351F48091BE00882331F026
:1033A0008091BB0081508093BB000CC080916E0067
:1033B000882341F48DE263E070E04CE050E00E942D
:1033C000361EF9CE82E490E061E070E00E945B027C
:1033D0008130910509F47CCF000082E490E061E047
:1033E00070E00E945B020097C1F38091BB00482F00
:1033F00050E088EE93E0489F9001499F300D589F20
:10340000300D11248091BC00682F70E044E650E03C
:10341000649FC001659F900D749F900D1124280F2B
:10342000391F8091BD00882F90E0880F991FAC0153
:10343000440F551F440F551F840F951F280F391F28
:103440008091BE00882F90E0820F931F90936700B9
:10345000809366000E94FD1D1092BB0081E0809366
:10346000BC0085EA90E063E070E044E050E00E9438
:10347000FE1E8091BB00805D63E070E04AE050E09A
:103480000E94361E82E490E061E070E00E945B02E0
:103490008093690082E490E062E070E00E945B0249
:1034A00080936A0082E490E063E070E00E945B0237
:1034B00080936B0080916A00813041F480916B00B1
:1034C000813021F4809169008130E1F2000082E4D2
:1034D00090E063E070E00E945B020097C1F382E439
:1034E00090E062E070E00E945B02009781F38091BF
:1034F0006A00882351F48091BB00882331F48091C5
:10350000BB008F5F8093BB0015C080916B00882348
:1035100089F48091BB00882321F08091BC0088232E
:1035200021F48091BB00823028F08091BB00815053
:103530008093BB0080916900813009F49ACF00002C
:1035400082E490E061E070E00E945B020097C1F3CA
:103550008091BC00805D63E070E04BE050E00E9431
:10356000361E82E490E061E070E00E945B0280938E
:10357000690082E490E062E070E00E945B02809368
:103580006A0082E490E063E070E00E945B02809356
:103590006B0082E490E066E070E00E945B02809342
:1035A0006E0080916A00813061F480916B008130FF
:1035B00041F480916900813021F480916E00813066
:1035C00081F2000082E490E063E070E00E945B0220
:1035D0000097C1F382E490E062E070E00E945B0239
:1035E000009781F382E490E066E070E00E945B0265
:1035F000009741F380916A008823B1F48091BC0068
:10360000893020F48091BB00882341F08091BC0078
:10361000823050F48091BB00813031F48091BC0045
:103620008F5F8093BC0026C080916B008823B1F42B
:103630008091BC00882321F08091BB00813041F053
:103640008091BC00823050F08091BB00882331F41F
:103650008091BC0081508093BC000CC080916E00B2
:10366000882341F48DE263E070E04BE050E00E947B
:10367000361EFFCE80916900813009F469CF8091B8
:10368000BB00880F982F990F990F980F8091BC005D
:10369000890F80936500000082E490E061E070E0B3
:1036A0000E945B020097C1F30E94FD1D1092BB00B7
:1036B00081E08093BC008EEA90E063E070E045E03A
:1036C00050E00E94FE1E8091BB00805D63E070E0D0
:1036D00049E050E00E94361E82E490E061E070E034
:1036E0000E945B028093690082E490E062E070E0F7
:1036F0000E945B0280936A0082E490E063E070E0E5
:103700000E945B0280936B0080916A00813041F4DB
:1037100080916B00813021F4809169008130E1F269
:10372000000082E490E063E070E00E945B0200979A
:10373000C1F382E490E062E070E00E945B020097D7
:1037400081F380916A00882351F48091BB0083301B
:1037500030F48091BB008F5F8093BB0015C08091D7
:103760006B00882389F48091BB00882321F080912D
:10377000BC00813021F08091BB00823028F0809124
:10378000BB0081508093BB0080916900813009F4B7
:103790009ACF000082E490E061E070E00E945B025A
:1037A0000097C1F38091BC00805D63E070E04AE067
:1037B00050E00E94361E82E490E061E070E00E94DA
:1037C0005B028093690082E490E062E070E00E9416
:1037D0005B0280936A0082E490E063E070E00E9404
:1037E0005B0280936B0082E490E066E070E00E94F0
:1037F0005B0280936E0080916A00813061F4809159
:103800006B00813041F480916900813021F4809116
:103810006E00813081F2000082E490E063E070E0AD
:103820000E945B020097C1F382E490E062E070E0E6
:103830000E945B02009781F382E490E066E070E012
:103840000E945B02009741F380916A008823B1F4E3
:103850008091BC00893020F48091BB00833040F01F
:103860008091BC00882351F48091BB00833031F4F7
:103870008091BC008F5F8093BC0026C080916B005C
:103880008823B1F48091BC00882321F08091BB0093
:10389000882341F48091BC00823050F08091BB00BD
:1038A000882331F48091BC0081508093BC000CC00F
:1038B00080916E00882341F48DE263E070E04AE07D
:1038C00050E00E94361EFFCE82E490E061E070E09E
:1038D0000E945B028130910509F464CF8091BB00A6
:1038E000880F982F990F990F980F8091BC00890F1E
:1038F00080936400000082E490E061E070E00E9448
:103900005B020097C1F30C9486111F920F920FB6C1
:103910000F9211248F93CF93DF93CDB7DEB78091B1
:10392000B8008F5F8093B800DF91CF918F910F9097
:103930000FBE0F901F901895CF93DF9300D0CDB797
:10394000DEB78A8319820E94FE078091B5000E942B
:10395000400889810E9469088A810E9469080E9442
:1039600092080F900F90DF91CF910895CF93DF933E
:103970000F92CDB7DEB789830E94FE078091B50014
:103980000E94400880E40E94690889810E946908B9
:103990000E9492080F90DF91CF910895CF93DF930B
:1039A000CDB7DEB781E20E949C1C80E00E949C1C87
:1039B0008FE70E949C1CDF91CF910895CF93DF93F6
:1039C000CDB7DEB782E20E949C1C80E00E949C1C66
:1039D00087E00E949C1CDF91CF9108950F931F9365
:1039E000CF93DF93CDB7DEB72E970FB6F894DEBF37
:1039F0000FBECDBF8AE390E02AE330E0F9012081D9
:103A00002461FC0120838BE390E02BE330E0F9019B
:103A100020812460FC01208380E090E0A8ECB2E4E7
:103A200089839A83AB83BC8369817A818B819C81F2
:103A300020E030E04AEF54E40E943321DC01CB0166
:103A40008D839E83AF83B88711E06D817E818F81E6
:103A5000988520E030E040E85FE30E9475208823ED
:103A60000CF010E0112329F081E090E09A8789871B
:103A700046C011E06D817E818F81988520E03FEF07
:103A80004FE757E40E942F2118160CF010E0112385
:103A900061F169817A818B819C8120E030E040E294
:103AA00051E40E943321DC01CB01BC01CD010E9415
:103AB0007920DC01CB019A87898712C088EC90E0DD
:103AC0009C878B878B859C858C01C8010197F1F7BA
:103AD0008C011C870B8789859A8501979A8789872E
:103AE00089859A85009751F717C06D817E818F81F6
:103AF00098850E947920DC01CB019A878987898586
:103B00009A859E878D878D859E858C01F8013197DA
:103B1000F1F78F011E870D878EEA0E949C1C85EDB0
:103B20000E949C1C80E80E949C1C88EA0E949C1CAD
:103B30008FE30E949C1C83ED0E949C1C80E00E94ED
:103B40009C1C80E40E949C1C8DE80E949C1C84E1CB
:103B50000E949C1C81EA0E949C1C88EC0E949C1C78
:103B60008AED0E949C1C82E10E949C1C81E80E94BC
:103B70009C1C8FEC0E949C1C89ED0E949C1C81EF78
:103B80000E949C1C8BED0E949C1C80E40E949C1C4B
:103B900084EA0E949C1C86EA0E949C1C8FEA0E9478
:103BA0009C1C2E960FB6F894DEBF0FBECDBFDF91E2
:103BB000CF911F910F910895CF93DF93CDB7DEB7CB
:103BC0000E94F31D0E94FD1D0E94E91DDF91CF910F
:103BD0000895CF93DF93CDB7DEB78FEA0E949C1C88
:103BE000DF91CF910895CF93DF93CDB7DEB78EEA03
:103BF0000E949C1CDF91CF910895CF93DF9300D05A
:103C0000CDB7DEB71A8212C08A8160E00E94881E9A
:103C1000198206C080E00E941E1E89818F5F898301
:103C200089818823BCF78A818F5F8A838A81883063
:103C300058F30F900F90DF91CF910895CF93DF93BA
:103C40000F92CDB7DEB789830E94FE078091B50041
:103C50000E94400880E40E94690889810E946908E6
:103C60000E9492080F90DF91CF9108951F93CF93F8
:103C7000DF93CDB7DEB72A970FB6F894DEBF0FBE3D
:103C8000CDBF8E8378876F835A8749878F819985C7
:103C9000692F0E94881E0E94FE078091B5000E9435
:103CA000400880E40E9469081A82198220C08E812F
:103CB000882F90E080979C01220F331F220F331F23
:103CC000220F331F89819A81820F931F8C5A9F4F35
:103CD0009C838B838B819C81FC0114911D838D813E
:103CE0000E94690889819A8101969A8389838981D2
:103CF0009A8188309105DCF20E9492082A960FB6CC
:103D0000F894DEBF0FBECDBFDF91CF911F91089514
:103D1000CF93DF9300D0CDB7DEB789836A838981E3
:103D200080550E949C1C8A81880F880F880F8F7095
:103D30000E949C1C8A81882F90E0880F991F880F11
:103D4000991F880F991F95958795959587959595B6
:103D50008795959587958F70805F0E949C1C0F902A
:103D60000F90DF91CF9108951F93CF93DF9300D0F1
:103D700000D000D0CDB7DEB79E838D8319822CC0D2
:103D8000198222C08D819E81FC018081882F90E064
:103D900080979C01220F331F220F331F220F331FE6
:103DA0008981882F90E0820F931F8C5A9F4F9B83AD
:103DB0008A838A819B81FC0114911C838C810E94DF
:103DC0001E1E89818F5F898389818830D8F28D8119
:103DD0009E8101969E838D838D819E81FC018081D1
:103DE000882F90E0009761F626960FB6F894DEBF14
:103DF0000FBECDBFDF91CF911F9108951F93CF9339
:103E0000DF93CDB7DEB72A970FB6F894DEBF0FBEAB
:103E1000CDBF9E838D8378876F835A8749878F8133
:103E20009985692F0E94881E19822CC0198222C090
:103E30008D819E81FC018081882F90E080979C017C
:103E4000220F331F220F331F220F331F8981882F28
:103E500090E0820F931F8C5A9F4F9B838A838A81A5
:103E60009B81FC0114911C838C810E941E1E898100
:103E70008F5F898389818830D8F28D819E810196F8
:103E80009E838D838D819E81FC018081882371F6C4
:103E90002A960FB6F894DEBF0FBECDBFDF91CF914B
:103EA0001F910895CF93DF93CDB7DEB782E490E002
:103EB00022E430E0F90120812860FC01208385E4C0
:103EC00090E025E430E0F90120812160FC012083AD
:103ED00085E490E025E430E0F90120812460FC01D4
:103EE0002083789489E590E029E530E0F90120818C
:103EF0002064FC012083DF91CF910895CF93DF935D
:103F0000CDB7DEB783E590E023E530E0F90120810D
:103F10002860FC0120838CE590E020E5FC012083F3
:103F200083E590E023E530E0F90120812160FC0188
:103F3000208383E590E023E530E0F90120812460CF
:103F4000FC012083789489E590E029E530E0F901CF
:103F500020812260FC012083DF91CF910895CF93CF
:103F6000DF93CDB7DEB787E390E027E330E0F901D8
:103F700020812860FC01208383E590E023E530E088
:103F8000F90120812860FC0120838CE590E020E489
:103F9000FC01208383E590E023E530E0F9012081F6
:103FA0002160FC01208383E590E023E530E0F90106
:103FB00020812460FC01208383E590E023E530E04C
:103FC000F90120812061FC012083DF91CF910895C8
:103FD000CF93DF93CDB7DEB787E390E027E330E000
:103FE000F90120812860FC01208383E590E023E52E
:103FF00030E0F90120812064FC01208383E590E01A
:1040000023E530E0F90120812860FC0120838CE564
:1040100090E020E4FC01208383E590E023E530E09C
:10402000F90120812160FC01208383E590E023E5F4
:1040300030E0F90120812460FC01208383E590E0D9
:1040400023E530E0F90120812061FC01208383E534
:1040500090E023E530E0F90120812062FC0120831B
:10406000DF91CF910895CF93DF93CDB7DEB787E38C
:1040700090E027E330E0F90120812860FC012083F3
:1040800083E590E023E530E0F90120812064FC0124
:1040900020838CE590E020E4FC01208383E590E020
:1040A00023E530E0F90120812160FC01208383E5D4
:1040B00090E023E530E0F90120812460FC012083B9
:1040C00083E590E023E530E0F90120812061FC01E7
:1040D000208383E590E023E530E0F9012081206230
:1040E000FC012083DF91CF9108956CD008F481E02A
:1040F000089594D088F09F5790F0B92F9927B75121
:10410000A0F0D1F0660F771F881F991F1AF0BA959B
:10411000C9F712C0B13081F09BD0B1E0089598C0CA
:10412000672F782F8827B85F39F0B93FCCF3869591
:1041300077956795B395D9F73EF4909580957095EE
:1041400061957F4F8F4F9F4F0895E89409C097FB6B
:104150003EF490958095709561957F4F8F4F9F4F5E
:104160009923A9F0F92F96E9BB279395F6958795A2
:1041700077956795B795F111F8CFFAF4BB0F11F465
:1041800060FF1BC06F5F7F4F8F4F9F4F16C088230C
:1041900011F096E911C0772321F09EE8872F762F42
:1041A00005C0662371F096E8862F70E060E02AF083
:1041B0009A95660F771F881FDAF7880F969587956F
:1041C00097F90895990F0008550FAA0BE0E8FEEF44
:1041D00016161706E807F907C0F012161306E407CB
:1041E000F50798F0621B730B840B950B39F40A26C4
:1041F00061F0232B242B252B21F408950A2609F4A2
:10420000A140A6958FEF811D811D089557FD9058FF
:10421000440F551F59F05F3F71F04795880F97FB8A
:10422000991F61F09F3F79F0879508951216130644
:104230001406551FF2CF4695F1DF08C01616170673
:104240001806991FF1CF86957105610508940895A8
:10425000E894BB2766277727CB0197F90895B2DF4B
:1042600008F48FEF08950BD078C069D028F06ED095
:1042700018F0952309F05AC05FC01124EACFC6DFB9
:10428000A0F3959FD1F3950F50E0551F629FF00169
:10429000729FBB27F00DB11D639FAA27F00DB11DC2
:1042A000AA1F649F6627B00DA11D661F829F22274B
:1042B000B00DA11D621F739FB00DA11D621F839FD2
:1042C000A00D611D221F749F3327A00D611D231FA8
:1042D000849F600D211D822F762F6A2F11249F57F6
:1042E00050408AF0E1F088234AF0EE0FFF1FBB1F19
:1042F000661F771F881F91505040A9F79E3F5105B8
:1043000070F014C0A6CF5F3FECF3983EDCF38695C7
:1043100077956795B795F795E7959F5FC1F7FE2B62
:10432000880F911D9695879597F9089597F99F673E
:1043300080E870E060E008959FEF80EC089500242D
:104340000A941616170618060906089500240A94FA
:1043500012161306140605060895092E0394000C80
:1043600011F4882352F0BB0F40F4BF2B11F460FF0F
:1043700004C06F5F7F4F8F4F9F4F0895991B79E067
:1043800004C0991F961708F0961B881F7A95C9F7E5
:1043900080950895AA1BBB1B51E107C0AA1FBB1F34
:1043A000A617B70710F0A61BB70B881F991F5A95C1
:1043B000A9F780959095BC01CD010895A1E21A2E30
:1043C000AA1BBB1BFD010DC0AA1FBB1FEE1FFF1FB9
:1043D000A217B307E407F50720F0A21BB30BE40B09
:1043E000F50B661F771F881F991F1A9469F7609550
:1043F0007095809590959B01AC01BD01CF0108950A
:04440000F894FFCF5E
:10440400030405031005E80701010101010101018D
:1044140054454D503A00202020002000686F7572EA
:10442400733A2D2D006D696E757465733A2D2D00E8
:104434007365636F6E64733A2D2D00796561723A0A
:104444002D2D2D2D006D6F6E74683A2D2D00646135
:06445400793A2D2D0078DD
:00000001FF
