S0130000536D6172742057617463682E73726563F3
S11300000C94AA010C94C7010C94C7010C94C70169
S11300100C94C7010C94C7010C94C7010C94C7013C
S11300200C94C7010C94C7010C94C7010C94C7012C
S11300300C94C7010C94C7010C94C7010C94C7011C
S11300400C94C7010C94C7010C94C7010C94C7010C
S11300500C94C701000000000000000000005F00D5
S113006000000000000007000700000000147F14D7
S11300707F14000000242A7F2A12000000231308A2
S11300806462000000364955225000000000050358
S113009000000000001C2241000000000041221C5E
S11300A00000000000082A1C2A0800000008083E7E
S11300B00808000000A06000000000000008080814
S11300C00808000000606000000000000020100824
S11300D004020000003E5149453E00000000427FFA
S11300E04000000000625149494600000022414995
S11300F049360000001814127F10000000274545FF
S113010045390000003C4A494930000000017109AA
S113011005030000003649494936000000064949F4
S1130120291E000000003636000000000000AC6C00
S11301300000000000081422410000000014141400
S113014014140000004122140800000000020151B0
S11301500906000000324979413E0000007E090989
S1130160097E0000007F494949360000003E4141B4
S113017041220000007F4141221C0000007F4949C8
S113018049410000007F090909010000003E414186
S113019051720000007F0808087F000000417F4181
S11301A000000000002040413F010000007F0814CF
S11301B022410000007F404040400000007F020CCC
S11301C0027F0000007F0408107F0000003E4141D0
S11301D0413E0000007F090909060000003E41512C
S11301E0215E0000007F09192946000000264949C4
S11301F0493200000001017F01010000003F40403E
S1130200403F0000001F2040201F0000003F4038F6
S1130210403F0000006314081463000000030478E6
S1130220040300000061514945430000007F41413F
S11302300000000000020408102000000041417F7B
S1130240000000000004020102040000008080801D
S113025080800000000102040000000000205454CB
S113026054780000007F4844443800000038444477
S11302702800000000384444487F000000385454EB
S11302805418000000087E09020000000018A4A40D
S1130290A47C0000007F08040478000000007D00B6
S11302A0000000000080847D00000000007F102812
S11302B04400000000417F4000000000007C04185E
S11302C004780000007C08047C00000000384444EA
S11302D03800000000FC2424180000000018242426
S11302E0FC00000000007C08040000000048545496
S11302F02400000000047F4400000000003C404053
S11303007C000000001C2040201C0000003C403009
S1130310403C00000044281028440000001CA0A019
S11303207C000000004464544C4400000008364142
S11303300000000000007F000000000000413608BB
S11303400000000000020101020100000002050596
S11303500200000011241FBECFE5D8E0DEBFCDBFF0
S113036010E0A0E6B0E0ECEEF6E102C005900D92DC
S1130370AE38B107D9F714E0AEE8B0E001C01D9281
S1130380A639B107E1F70E9464060C94740B0C942F
S1130390000081E460E040E00E94E001379A319A75
S11303A0329A3E9A3F9A0895369A3499FECF84B190
S11303B090E045B1349A342F20E0822B932B08959A
S11303C08234E9F0833420F4813409F04AC006C051
S11303D0833431F1843409F044C033C02AB381E05A
S11303E090E002C0880F991F6A95E2F7413019F432
S11303F0282B2ABB0895809582238ABB089527B3AE
S113040081E090E002C0880F991F6A95E2F74130BD
S113041019F4282B27BB08958095822387BB089560
S113042024B381E090E002C0880F991F6A95E2F737
S1130430413019F4282B24BB08958095822384BB72
S1130440089521B381E090E002C0880F991F6A9556
S1130450E2F7413019F4282B21BB089580958223BB
S113046081BB08958234E9F0833420F4813409F0A7
S11304704AC006C0833431F1843409F044C033C027
S11304802BB381E090E002C0880F991F6A95E2F7D0
S1130490413019F4282B2BBB0895809582238BBB04
S11304A0089528B381E090E002C0880F991F6A95EF
S11304B0E2F7413019F4282B28BB08958095822354
S11304C088BB089525B381E090E002C0880F991F8E
S11304D06A95E2F7413019F4282B25BB08958095DD
S11304E0822385BB089522B381E090E002C0880F87
S11304F0991F6A95E2F7413019F4282B22BB08951D
S11305008095822382BB0895823461F0833418F489
S11305108134F1F405C0833439F08434C9F406C05D
S113052029B305C026B303C023B301C020B381E0BF
S113053090E0062E02C0880F991F0A94E2F730E07B
S11305408223932302C0959587956A95E2F70895CF
S113055080E008958234A9F0833418F4813489F555
S113056005C08334C9F0843461F521C02BB381E024
S113057090E002C0880F991F6A95E2F728272BBBE9
S1130580089528B381E090E002C0880F991F6A950E
S1130590E2F7282728BB089525B381E090E002C044
S11305A0880F991F6A95E2F7282725BB089522B37F
S11305B081E090E002C0880F991F6A95E2F728272E
S11305C022BB0895823461F0833418F4813469F4D1
S11305D005C0833439F0843441F406C06ABB0895FD
S11305E067BB089564BB089561BB0895823461F0CC
S11305F0833418F4813469F405C0833439F08434C5
S113060041F406C06BBB089568BB089565BB0895AB
S113061062BB0895823461F0833418F4813471F438
S113062005C0833439F0843449F406C089B308958D
S113063086B3089583B3089580B3089580E0089540
S11306408234E9F0833420F4813409F04AC006C0CE
S1130650833431F1843409F044C033C02BB381E0D6
S113066090E002C0880F991F6A95E2F7413019F4AF
S1130670282B2BBB0895809582238BBB089528B328
S113068081E090E002C0880F991F6A95E2F741303B
S113069019F4282B28BB08958095822388BB0895DC
S11306A025B381E090E002C0880F991F6A95E2F7B4
S11306B0413019F4282B25BB08958095822385BBEE
S11306C0089522B381E090E002C0880F991F6A95D3
S11306D0E2F7413019F4282B22BB08958095822338
S11306E082BB08956F70823481F0833418F48134AE
S11306F0F1F405C0833479F08434C9F412C08BB3A7
S1130700807F8BBB8BB3862B8BBB88B3807F88BBEE
S113071088B3862B88BB85B3807F85BB85B3862B46
S113072085BB82B3807F82BB82B3862B82BB089554
S11307306295607F823481F0833418F48134F1F45B
S113074005C0833479F08434C9F412C08BB38F703C
S11307508BBB8BB3862B8BBB88B38F7088BB88B362
S1130760862B88BB85B38F7085BB85B3862B85BBF1
S113077082B38F7082BB82B3862B82BB08950F93A2
S11307801F939B01AC0160E072E18AE790E00E9454
S1130790520B89019A010051104020403040369597
S11307A027951795079500B911B886B7846086BF59
S11307B01F910F91089586B7806286BF06B607FE23
S11307C0FDCF81B1089586B7806286BF06B607FE65
S11307D0FDCF81B1089583B986B7806886BF06B618
S11307E007FEFDCF81B1089583B986B7806886BFBF
S11307F006B607FEFDCF81B1089584E986BF08954A
S113080082B9089586B7846C86BF06B607FEFDCF0D
S113081081B186B7806886BF06B607FEFDCF81B179
S113082083B1089583B984E886BF06B607FEFDCF79
S113083081B1089584E886BF06B607FEFDCF81B175
S113084083B1089584E886BF06B607FEFDCF81B163
S113085083B1089540E00E94E00108950E9484025B
S113086008950E948C040E9496040E94DB038091E8
S11308708C000E94EB0380E40E94F403C0E0EC2FA0
S1130880F0E0EA56FF4F80810E94F403CF5FF7CF78
S11308900E94B40580E060E00E945C0581E30E9450
S11308A04A0581E060E00E945C0582E060E00E940D
S11308B05C0583E060E00E945C0587E06FE00E94D5
S11308C05C050895809193008F5F80939300089551
S11308D0CF93C82F0E94DB0380918C000E94EB030E
S11308E080E00E94F4038C2F0E94F4030E94FD0315
S11308F0CF910895CF93C82F0E94DB0380918C0081
S11309000E94EB0380E40E94F4038C2F0E94F40302
S11309100E94FD03CF91089581E20E94680480E063
S11309200E9468048FE70E946804089582E20E948E
S1130930680480E00E94680487E00E9468040895C7
S11309408AB384618ABBDA9A8FEF90E7A2E0815080
S11309509040A040E1F700C000008EEA0E946804C5
S113096085ED0E94680480E80E94680488EA0E9479
S113097068048FE30E94680483ED0E94680480E0A9
S11309800E94680480E40E9468048DE80E94680460
S113099084E10E94680481EA0E94680488EC0E9451
S11309A068048AED0E94680482E10E94680481E878
S11309B00E9468048FEC0E94680489ED0E94680418
S11309C081EF0E9468048BED0E94680480E40E9419
S11309D0680484EA0E94680486EA0E9468048FEA34
S11309E00E9468040895AF92BF92CF92DF92EF9273
S11309F0FF920F931F93CF93DF930F92CDB7DEB780
S1130A00E82E80E099830E94680480E10E946804D3
S1130A1080EB0E9468040E2D9981192FEE24FF2487
S1130A2021C0F60181916F010E9468040894A11C01
S1130A30B11CF0E8AF16B104A1F780E00E9468048D
S1130A4080E00E94680480E00E94680480E00E94C4
S1130A5068040894E11CF11C00581F4F88E0E81654
S1130A60F10421F06801AA24BB24DBCF0F90DF91AD
S1130A70CF911F910F91FF90EF90DF90CF90BF9097
S1130A80AF9008958FEA0E94680408958EEA0E9448
S1130A9068040895CF93C82F0E94DB0380918C00D3
S1130AA00E94EB0380E40E94F4038C2F0E94F40361
S1130AB00E94FD03CF910895CF93C62F80550E94C5
S1130AC068048C2F880F880F880F88700E94680430
S1130AD08C2F90E0969587958F70805F0E946804B4
S1130AE0CF9108950F931F93CF93DF93C82F862F31
S1130AF0642F0E945C050E94DB0380918C000E949D
S1130B00EB0380E40E94F403D0E033E0CC0FDD1F5C
S1130B103A95E1F700E010E0CC5AD040FE01E00F36
S1130B20F11F84910E94F4030F5F1F4F08301105D9
S1130B30A9F70E94FD03DF91CF911F910F910895B2
S1130B40CF93DF93C0E08C2F60E00E945C05D0E07F
S1130B5080E00E944A05DF5FD038D1F7CF5FC8300C
S1130B6091F7DF91CF9108950E9446050E94A00558
S1130B700E94420508950F931F93CF93DF938C0136
S1130B8018C0C0E0D0E0D801EC91F0E0B09743E0A9
S1130B90EE0FFF1F4A95E1F7EC0FFD1FEC5AFF4FD4
S1130BA084910E944A052196C830D10561F70F5FF0
S1130BB01F4FF8018081882321F7DF91CF911F9186
S1130BC00F9108950F931F93CF93DF938C01862F7A
S1130BD0642F0E945C0518C0C0E0D0E0D801EC91FD
S1130BE0F0E0B09753E0EE0FFF1F5A95E1F7EC0FDA
S1130BF0FD1FEC5AFF4F84910E944A052196C8308C
S1130C00D10561F70F5F1F4FF8018081882321F719
S1130C10DF91CF911F910F91089582B5886082BDB5
S1130C2085B5816085BD85B5846085BD789489B7B7
S1130C30806489BF089583B7886083BF80E58CBFD3
S1130C4083B7816083BF83B7846083BF789489B797
S1130C50826089BF0895BB9A83B7886083BF80E4AC
S1130C608CBF83B7816083BF83B7846083BF83B73E
S1130C70806183BF0895BB9A83B7806483BF83B7C1
S1130C80886083BF80E48CBF83B7816083BF83B7F0
S1130C90846083BF83B7806183BF83B7806283BF6F
S1130CA00895BB9A83B7806483BF80E48CBF83B705
S1130CB0816083BF83B7846083BF83B7806183BF50
S1130CC083B7806283BF08950E940D0680E094E09C
S1130CD0E6E9F0E0DF019C011D9221503040E1F78C
S1130CE088E780938C0060E87AE186E090E00E94D7
S1130CF0BF030E94C90184E490E060E070E041E039
S1130D0050E00E94E00184E490E061E070E041E0A2
S1130D1050E00E94E00182E490E060E070E00E9414
S1130D202A0482E490E061E070E00E942A0482E4F4
S1130D3090E062E070E00E942A0482E490E063E0C4
S1130D4070E00E942A0482E490E064E070E00E9473
S1130D502A0482E490E065E070E00E942A0482E4C0
S1130D6090E066E070E00E942A0482E490E067E08C
S1130D7070E00E942A0482E490E060E070E041E0C8
S1130D8050E00E94200382E490E061E070E041E0E2
S1130D9050E00E94200382E490E062E070E041E0D1
S1130DA050E00E94200382E490E063E070E041E0C0
S1130DB050E00E94200382E490E064E070E041E0AF
S1130DC050E00E94200382E490E065E070E041E09E
S1130DD050E00E9420030E94B4058FE19EE4019735
S1130DE0F1F700C000000E94A00484E490E060E0F9
S1130DF070E041E050E00E94320260919200409124
S1130E008B0080E690E070E050E00E94E20524E66A
S1130E10E22EF12C0AE010E0CAE00E94D401DC01C9
S1130E20BD01882777FD8095982F0E94430A20E012
S1130E3030E040E85EE30E94A70A0E94150AAB0175
S1130E40BC01CA0150939500409394004A30510567
S1130E50B8F440918B0050E04B5F5F4F805D60E0E1
S1130E6070E00E94720540918B0050E04A5F5F4F32
S1130E7083E460E070E00E94720586E690E031C091
S1130E809A012A5030402A35310570F5B8010E9484
S1130E903E0B40918B0050E04B5F5F4F862F805D8F
S1130EA060E070E00E94720580919400909195003A
S1130EB0B8010E943E0B40918B0050E04A5F5F4FA7
S1130EC0805D60E070E00E94720540918B0050E00C
S1130ED0495F5F4F83E460E070E00E9472058AE638
S1130EE090E00E94BB0545C09A0124563040B3E00F
S1130EF024383B07F0F5B7010E943E0B40918B006C
S1130F0050E04B5F5F4F862F805D60E070E00E9491
S1130F1072058091940090919500B8010E943E0B57
S1130F20CB01B8010E943E0B40918B0050E04A5F18
S1130F305F4F805D60E070E00E94720580919400D4
S1130F4090919500B8010E943E0B40918B0050E0B7
S1130F50495F5F4F805D60E070E00E9472054091E0
S1130F608B0050E0485F5F4F83E460E070E00E94D4
S1130F70720580918F006C2F0E94320B6091890062
S1130F8040918B00805D70E050E00E94720580917A
S1130F908F006C2F0E94320B6091890040918B006E
S1130FA050E04F5F5F4F892F805D70E00E947205B3
S1130FB06091890040918B0050E04E5F5F4F8AE35F
S1130FC070E00E947205809190006C2F0E94320B99
S1130FD06091890040918B0050E04D5F5F4F805DD0
S1130FE070E00E947205809190006C2F0E94320B79
S1130FF06091890040918B0050E04C5F5F4F892FD6
S1131000805D70E00E9472056091890040918B00C0
S113101050E04B5F5F4F8AE370E00E94720580915D
S113102093006C2F0E94320B6091890040918B00D9
S113103050E04A5F5F4F805D70E00E9472058091CE
S113104093006C2F0E94320B6091890040918B00B9
S113105050E0495F5F4F892F805D70E00E94720508
S113106082E490E060E070E00E942E0480938500AA
S113107082E490E061E070E00E942E04809384009A
S113108082E490E062E070E00E942E04809383008A
S113109082E490E063E070E00E942E04809382007A
S11310A082E490E064E070E00E942E04809381006A
S11310B082E490E065E070E00E942E04809380005A
S11310C0809193008C3379F4809190008F5F8093AA
S11310D090001092930084E490E060E070E041E0BE
S11310E050E00E943202809190008C3379F4809118
S11310F08F008F5F80938F001092900084E490E0C3
S113110061E070E041E050E00E94320280918F0083
S1131110883110F010928F00809185008130D1F4D5
S113112080918400813009F0BCC0809183008130BB
S113113009F0B7C080918200813009F0B2C080917B
S11311408100813009F0ADC080918000813009F0C8
S1131150A8C063CE882309F0A4C00E94A005809192
S11311608500882309F460C12FE73AE146E0215065
S113117030404040E1F700C0000010928700109218
S113118086008FEF92E5A7E081509040A040E1F700
S113119000C000006091910040918A008CE690E0CC
S11311A070E050E00E94E2056091910040918A0055
S11311B050E04A5F5F4F8091870070E00E947205A3
S11311C082E490E062E070E00E942E048093830049
S11311D082E490E063E070E00E942E048093820039
S11311E020918300213019F0222321F007C081309F
S11311F039F304C0909187009F5F05C0882329F4C8
S113120090918700915090938700882309F40BC133
S11312102223D9F32FE73AE146E021503040404001
S1131220E1F700C0000080918500813009F4BCCF53
S11312308FE79AE1A6E081509040A040E1F700C01A
S113124000006091910040918A0050E0495F5F4F37
S11312508091860070E00E94720582E490E062E072
S113126070E00E942E048093830082E490E063E0A7
S113127070E00E942E04809382009091830091304C
S113128011F4813051F3882309F4CCC09923D9F3A4
S11312902FE73AE146E0215030404040E1F700C0FA
S11312A0000080918500813009F4BBC02FE73AE14A
S11312B046E0215030404040E1F700C00000882360
S11312C009F4AEC08FE79AE1A6E081509040A040B7
S11312D0E1F700C0000010928700109286002FEF03
S11312E032E547E0215030404040E1F700C00000C3
S11312F06091910040918A0085E790E070E050E0B1
S11313000E94E2056091910040918A0050E0485F9C
S11313105F4F8091870070E00E94720582E490E044
S113132062E070E00E942E048093830082E490E0E7
S113133063E070E00E942E04809382002091830079
S1131340213019F0222321F007C0813039F304C081
S1131350909187009F5F05C0882329F490918700AE
S1131360915090938700882309F459C02223D9F31C
S11313708FE79AE1A6E081509040A040E1F700C0D9
S1131380000080918500813009F4BCCF2FE73AE159
S113139046E0215030404040E1F700C00000609139
S11313A0910040918A0050E0475F5F4F8091860032
S11313B070E00E94720582E490E062E070E00E94B6
S11313C02E048093830082E490E063E070E00E9446
S11313D02E048093820020918300213019F022236F
S11313E021F007C0813039F304C0909186009F5FDB
S11313F005C0882329F4909186009150909386002B
S1131400882361F02223E1F38FE79AE1A6E081507B
S11314109040A040E1F700C00000FFCCFFCFFFCF19
S1131420FFCFFFCFFFCFFFCFFFCF70D088F09F5704
S113143090F0B92F9927B751A0F0D1F0660F771F1C
S1131440881F991F1AF0BA95C9F712C0B13081F0FC
S113145077D0B1E0089574C0672F782F8827B85FDC
S113146039F0B93FCCF3869577956795B395D9F75D
S11314703EF490958095709561957F4F8F4F9F4F67
S11314800895E89409C097FB3EF490958095709573
S113149061957F4F8F4F9F4F9923A9F0F92F96E9BC
S11314A0BB279395F695879577956795B795F11131
S11314B0F8CFFAF4BB0F11F460FF1BC06F5F7F4FCE
S11314C08F4F9F4F16C0882311F096E911C07723E0
S11314D021F09EE8872F762F05C0662371F096E8E9
S11314E0862F70E060E02AF09A95660F771F881FB8
S11314F0DAF7880F9695879597F9089557FD9058D0
S1131500440F551F59F05F3F71F04795880F97FBC3
S1131510991F61F09F3F79F087950895121613067D
S11315201406551FF2CF4695F1DF08C016161706AC
S11315301806991FF1CF86957105610508940895E1
S1131540E894BB2766277727CB0197F908950BD03A
S113155078C069D028F06ED018F0952309F05AC0ED
S11315605FC01124EECFCADFA0F3959FD1F3950F8E
S113157050E0551F629FF001729FBB27F00DB11D13
S1131580639FAA27F00DB11DAA1F649F6627B00DA3
S1131590A11D661F829F2227B00DA11D621F739F8C
S11315A0B00DA11D621F839FA00D611D221F749F9A
S11315B03327A00D611D231F849F600D211D822FE1
S11315C0762F6A2F11249F5750408AF0E1F0882328
S11315D04AF0EE0FFF1FBB1F661F771F881F915035
S11315E05040A9F79E3F510570F014C0AACF5F3F49
S11315F0ECF3983EDCF3869577956795B795F79568
S1131600E7959F5FC1F7FE2B880F911D96958795EF
S113161097F9089597F99F6780E870E060E008956E
S11316209FEF80EC089500240A94161617061806F6
S11316300906089500240A941216130614060506D2
S11316400895092E0394000C11F4882352F0BB0F63
S113165040F4BF2B11F460FF04C06F5F7F4F8F4FC6
S11316609F4F0895991B79E004C0991F961708F0BD
S1131670961B881F7A95C9F780950895AA1BBB1BF2
S113168051E107C0AA1FBB1FA617B70710F0A61B7E
S1131690B70B881F991F5A95A9F780959095BC019F
S11316A0CD010895A1E21A2EAA1BBB1BFD010DC09A
S11316B0AA1FBB1FEE1FFF1FA217B307E407F507FE
S11316C020F0A21BB30BE40BF50B661F771F881FDA
S11316D0991F1A9469F760957095809590959B0170
S10F16E0AC01BD01CF010895F894FFCFC8
S11316EC54454D503A00202020002000686F75723C
S11316FC733A2D2D006D696E757465733A2D2D003A
S111170C010101010101010101020303780042
S9030000FC
