S0130000536D6172742057617463682E73726563F3
S11300000C94AA010C94C7010C94C7010C94C70169
S11300100C94C7010C94331B0C94C7010C94C701B6
S11300200C94C7010C94C7010C94C7010C94C7012C
S11300300C94C7010C94C7010C94C7010C94C7011C
S11300400C94C7010C94C7010C94C7010C94C7010C
S11300500C94C701000000000000000000005F00D5
S113006000000000000007000700000000147F14D7
S11300707F14000000242A7F2A12000000231308A2
S11300806462000000364955225000000000050358
S113009000000000001C2241000000000041221C5E
S11300A00000000000082A1C2A0800000008083E7E
S11300B00808000000A06000000000000008080814
S11300C00808000000606000000000000020100824
S11300D004020000003E5149453E00000000427FFA
S11300E04000000000625149494600000022414995
S11300F049360000001814127F10000000274545FF
S113010045390000003C4A494930000000017109AA
S113011005030000003649494936000000064949F4
S1130120291E000000003636000000000000AC6C00
S11301300000000000081422410000000014141400
S113014014140000004122140800000000020151B0
S11301500906000000324979413E0000007E090989
S1130160097E0000007F494949360000003E4141B4
S113017041220000007F4141221C0000007F4949C8
S113018049410000007F090909010000003E414186
S113019051720000007F0808087F000000417F4181
S11301A000000000002040413F010000007F0814CF
S11301B022410000007F404040400000007F020CCC
S11301C0027F0000007F0408107F0000003E4141D0
S11301D0413E0000007F090909060000003E41512C
S11301E0215E0000007F09192946000000264949C4
S11301F0493200000001017F01010000003F40403E
S1130200403F0000001F2040201F0000003F4038F6
S1130210403F0000006314081463000000030478E6
S1130220040300000061514945430000007F41413F
S11302300000000000020408102000000041417F7B
S1130240000000000004020102040000008080801D
S113025080800000000102040000000000205454CB
S113026054780000007F4844443800000038444477
S11302702800000000384444487F000000385454EB
S11302805418000000087E09020000000018A4A40D
S1130290A47C0000007F08040478000000007D00B6
S11302A0000000000080847D00000000007F102812
S11302B04400000000417F4000000000007C04185E
S11302C004780000007C08047C00000000384444EA
S11302D03800000000FC2424180000000018242426
S11302E0FC00000000007C08040000000048545496
S11302F02400000000047F4400000000003C404053
S11303007C000000001C2040201C0000003C403009
S1130310403C00000044281028440000001CA0A019
S11303207C000000004464544C4400000008364142
S11303300000000000007F000000000000413608BB
S11303400000000000020101020100000002050596
S11303500200000011241FBECFE5D8E0DEBFCDBFF0
S113036010E0A0E6B0E0EAE2F2E402C005900D92EB
S1130370A03CB107D9F710E0A0ECB0E001C01D9299
S1130380AB3CB107E1F70E9453090C9413210C9480
S11303900000CF93DF93CDB7DEB781E460E040E0A7
S11303A00E946B0286E290E026E230E0F9012081AF
S11303B02068FC01208386E290E026E230E0F90127
S11303C020812260FC01208386E290E026E230E076
S11303D0F90120812460FC01208387E290E027E278
S11303E030E0F90120812064FC01208387E290E061
S11303F027E230E0F90120812068FC012083DF91AD
S1130400CF910895CF93DF9300D0CDB7DEB786E2C6
S113041090E026E230E0F90120812064FC01208391
S1130420000086E290E0FC018081882F90E08071DA
S113043090709595879595958795959587959595BC
S113044087958130910569F384E290E0FC01808115
S1130450882F90E09A83898385E290E0FC01808173
S1130460882F90E0982F882729813A81822B932B1B
S11304709A83898386E290E026E230E0F9012081C4
S11304802061FC01208389819A810F900F90DF9174
S1130490CF910895CF93DF9300D0CDB7DEB7898392
S11304A06A8389816A8140E00E946B020F900F90F9
S11304B0DF91CF910895CF93DF9300D0CDB7DEB70E
S11304C089836A8389816A810E9439040F900F901D
S11304D0DF91CF910895CF93DF9300D00F92CDB7E2
S11304E0DEB789836A834B838981882F90E08234C5
S11304F0910509F440C08334910524F481349105B5
S113050051F0C9C08334910509F465C08434910560
S113051009F491C0C0C08B818130B1F48AE390E0CA
S11305202AE330E0F9012081622F2A81422F50E032
S113053021E030E0042E02C0220F331F0A94E2F7B8
S1130540262BFC012083A8C08AE390E02AE330E054
S1130550F9012081622F2A81422F50E021E030E00E
S1130560042E02C0220F331F0A94E2F7209526239B
S1130570FC01208391C08B818130B1F487E390E04A
S113058027E330E0F9012081622F2A81422F50E0D5
S113059021E030E0042E02C0220F331F0A94E2F758
S11305A0262BFC01208378C087E390E027E330E02A
S11305B0F9012081622F2A81422F50E021E030E0AE
S11305C0042E02C0220F331F0A94E2F7209526233B
S11305D0FC01208361C08B818130B1F484E390E01D
S11305E024E330E0F9012081622F2A81422F50E078
S11305F021E030E0042E02C0220F331F0A94E2F7F8
S1130600262BFC01208348C084E390E024E330E0FF
S1130610F9012081622F2A81422F50E021E030E04D
S1130620042E02C0220F331F0A94E2F720952623DA
S1130630FC01208331C08B818130B1F481E390E0EF
S113064021E330E0F9012081622F2A81422F50E01A
S113065021E030E0042E02C0220F331F0A94E2F797
S1130660262BFC01208318C081E390E021E330E0D5
S1130670F9012081622F2A81422F50E021E030E0ED
S1130680042E02C0220F331F0A94E2F7209526237A
S1130690FC01208301C000000F900F900F90DF91A8
S11306A0CF910895CF93DF9300D00F92CDB7DEB7EB
S11306B089836A834B838981882F90E082349105F2
S11306C009F440C08334910524F48134910551F038
S11306D0C9C08334910509F465C08434910509F4D3
S11306E091C0C0C08B818130B1F48BE390E02BE3E7
S11306F030E0F9012081622F2A81422F50E021E06D
S113070030E0042E02C0220F331F0A94E2F7262B96
S1130710FC012083A8C08BE390E02BE330E0F901D7
S11307202081622F2A81422F50E021E030E0042E04
S113073002C0220F331F0A94E2F720952623FC01FE
S1130740208391C08B818130B1F488E390E028E369
S113075030E0F9012081622F2A81422F50E021E00C
S113076030E0042E02C0220F331F0A94E2F7262B36
S1130770FC01208378C088E390E028E330E0F901AD
S11307802081622F2A81422F50E021E030E0042EA4
S113079002C0220F331F0A94E2F720952623FC019E
S11307A0208361C08B818130B1F485E390E025E33F
S11307B030E0F9012081622F2A81422F50E021E0AC
S11307C030E0042E02C0220F331F0A94E2F7262BD6
S11307D0FC01208348C085E390E025E330E0F90183
S11307E02081622F2A81422F50E021E030E0042E44
S11307F002C0220F331F0A94E2F720952623FC013E
S1130800208331C08B818130B1F482E390E022E314
S113081030E0F9012081622F2A81422F50E021E04B
S113082030E0042E02C0220F331F0A94E2F7262B75
S1130830FC01208318C082E390E022E330E0F90158
S11308402081622F2A81422F50E021E030E0042EE3
S113085002C0220F331F0A94E2F720952623FC01DD
S1130860208301C000000F900F900F90DF91CF9173
S11308700895CF93DF9300D00F92CDB7DEB78A836C
S11308806B8319828A81882F90E08234910571F1FB
S11308908334910524F48134910551F081C083346B
S11308A0910509F441C08434910509F45BC078C012
S11308B089E390E0FC018081282F30E08B81482F70
S11308C050E081E090E0042E02C0880F991F0A9442
S11308D0E2F7822393232B81222F30E0022E02C0E1
S11308E0959587950A94E2F789835BC086E390E047
S11308F0FC018081282F30E08B81482F50E081E07B
S113090090E0042E02C0880F991F0A94E2F7822314
S113091093232B81222F30E0022E02C095958795D8
S11309200A94E2F789833DC083E390E0FC0180816F
S1130930282F30E08B81482F50E081E090E0042E96
S113094002C0880F991F0A94E2F7822393232B8114
S1130950222F30E0022E02C0959587950A94E2F783
S113096089831FC080E390E0FC018081282F30E060
S11309708B81482F50E081E090E0042E02C0880F64
S1130980991F0A94E2F7822393232B81222F30E0CC
S1130990022E02C0959587950A94E2F7898301C0D7
S11309A0000089810F900F900F90DF91CF910895EF
S11309B0CF93DF9300D0CDB7DEB789836A83898173
S11309C0882F90E08234910529F18334910524F431
S11309D08134910549F060C08334910589F18434F0
S11309E0910509F443C058C08BE390E02BE330E059
S11309F0F9012081622F2A81422F50E021E030E06A
S1130A00042E02C0220F331F0A94E2F72627FC01AA
S1130A10208343C088E390E028E330E0F90120819B
S1130A20622F2A81422F50E021E030E0042E02C0E0
S1130A30220F331F0A94E2F72627FC0120832DC0DE
S1130A4085E390E025E330E0F9012081622F2A81DB
S1130A50422F50E021E030E0042E02C0220F331F69
S1130A600A94E2F72627FC01208317C082E390E072
S1130A7022E330E0F9012081622F2A81422F50E0E5
S1130A8021E030E0042E02C0220F331F0A94E2F763
S1130A902627FC01208301C000000F900F90DF91F6
S1130AA0CF910895CF93DF9300D0CDB7DEB789837C
S1130AB06A838981882F90E082349105A1F0833480
S1130AC0910524F48134910541F01FC083349105CC
S1130AD081F08434910599F018C08AE390E02A816A
S1130AE0FC01208313C087E390E02A81FC0120836A
S1130AF00DC084E390E02A81FC01208307C081E3D8
S1130B0090E02A81FC01208301C000000F900F9027
S1130B10DF91CF910895CF93DF9300D0CDB7DEB7A7
S1130B2089836A838981882F90E082349105A1F0BA
S1130B308334910524F48134910541F01FC083343A
S1130B40910581F08434910599F018C08BE390E00D
S1130B502A81FC01208313C088E390E02A81FC01F0
S1130B6020830DC085E390E02A81FC01208307C027
S1130B7082E390E02A81FC01208301C000000F90F1
S1130B800F90DF91CF910895CF93DF9300D0CDB72D
S1130B90DEB78A8319828A81882F90E08234910596
S1130BA0A1F08334910524F48134910541F01FC0F0
S1130BB08334910581F08434910599F018C089E358
S1130BC090E0FC018081898313C086E390E0FC01FE
S1130BD0808189830DC083E390E0FC018081898357
S1130BE007C080E390E0FC018081898301C000009C
S1130BF089810F900F90DF91CF910895CF93DF9368
S1130C0000D00F92CDB7DEB789836A834B83898185
S1130C10882F90E08234910509F440C08334910513
S1130C2024F48134910551F0C9C08334910509F449
S1130C3065C08434910509F491C0C0C08B818130B2
S1130C40B1F48BE390E02BE330E0F9012081622FD3
S1130C502A81422F50E021E030E0042E02C0220F0E
S1130C60331F0A94E2F7262BFC012083A7C08BE3F1
S1130C7090E02BE330E0F9012081622F2A81422F9A
S1130C8050E021E030E0042E02C0220F331F0A940A
S1130C90E2F720952623FC01208390C08B818130CC
S1130CA0B1F488E390E028E330E0F9012081622F79
S1130CB02A81422F50E021E030E0042E02C0220FAE
S1130CC0331F0A94E2F7262BFC01208377C088E3C4
S1130CD090E028E330E0F9012081622F2A81422F3D
S1130CE050E021E030E0042E02C0220F331F0A94AA
S1130CF0E2F720952623FC01208360C08B8181309C
S1130D00B1F485E390E025E330E0F9012081622F1E
S1130D102A81422F50E021E030E0042E02C0220F4D
S1130D20331F0A94E2F7262BFC01208347C085E396
S1130D3090E025E330E0F9012081622F2A81422FDF
S1130D4050E021E030E0042E02C0220F331F0A9449
S1130D50E2F720952623FC01208330C08B8181306B
S1130D60B1F482E390E022E330E0F9012081622FC4
S1130D702A81422F50E021E030E0042E02C0220FED
S1130D80331F0A94E2F7262BFC01208316C082E36A
S1130D9090E022E330E0F9012081622F2A81422F82
S1130DA050E021E030E0042E02C0220F331F0A94E9
S1130DB0E2F720952623FC01208300000F900F907A
S1130DC00F90DF91CF910895CF93DF9300D0CDB7EB
S1130DD0DEB789836A838A818F708A838981882FA9
S1130DE090E08234910509F18334910524F481342F
S1130DF0910541F053C08334910551F18434910538
S1130E00D1F14CC08BE390E02BE330E0F901208179
S1130E10207FFC0120838BE390E02BE330E0F90199
S1130E2030812A81232BFC01208388E390E028E38E
S1130E3030E0F9012081207FFC01208388E390E0E9
S1130E4028E330E0F90130812A81232BFC0120833F
S1130E5085E390E025E330E0F9012081207FFC0167
S1130E60208385E390E025E330E0F90130812A8195
S1130E70232BFC01208382E390E022E330E0F9019C
S1130E802081207FFC01208382E390E022E330E094
S1130E90F90130812A81232BFC0120830F900F90CC
S1130EA0DF91CF910895CF93DF9300D0CDB7DEB714
S1130EB089836A838A818295807F8A838981882F46
S1130EC090E08234910509F18334910524F481344E
S1130ED0910541F053C08334910551F18434910557
S1130EE0D1F14CC08BE390E02BE330E0F901208199
S1130EF02F70FC0120838BE390E02BE330E0F901B9
S1130F0030812A81232BFC01208388E390E028E3AD
S1130F1030E0F90120812F70FC01208388E390E008
S1130F2028E330E0F90130812A81232BFC0120835E
S1130F3085E390E025E330E0F90120812F70FC0186
S1130F40208385E390E025E330E0F90130812A81B4
S1130F50232BFC01208382E390E022E330E0F901BB
S1130F6020812F70FC01208382E390E022E330E0B3
S1130F70F90130812A81232BFC0120830F900F90EB
S1130F80DF91CF9108950F931F93CF93DF9300D0F8
S1130F9000D0CDB7DEB769837A838B839C8300E26C
S1130FA010E080E092E1AAE7B0E029813A814B8128
S1130FB05C81BC01CD010E94F120DA01C901409796
S1130FC0A109B109B695A79597958795F8018083EE
S1130FD081E290E0FC01108286E590E026E530E0B5
S1130FE0F90120812460FC0120830F900F900F9061
S1130FF00F90DF91CF911F910F910895CF93DF93BD
S1131000CDB7DEB786E590E026E530E0F901208132
S11310102062FC012083000086E590E0FC018081D1
S1131020881F8827881F882F90E090700097A1F36D
S113103081E290E0FC018081DF91CF910895CF930C
S1131040DF93CDB7DEB786E590E026E530E0F90121
S113105020812062FC012083000086E590E0FC01F1
S11310608081881F8827881F882F90E090700097C0
S1131070A1F381E290E0FC018081DF91CF9108959A
S1131080CF93DF930F92CDB7DEB7898383E290E0ED
S11310902981FC01208386E590E026E530E0F90112
S11310A020812068FC012083000086E590E0FC019B
S11310B08081881F8827881F882F90E09070009770
S11310C0A1F381E290E0FC0180810F90DF91CF9148
S11310D00895CF93DF930F92CDB7DEB7898383E270
S11310E090E02981FC01208386E590E026E530E04C
S11310F0F90120812068FC012083000086E590E04E
S1131100FC018081881F8827881F882F90E09070B9
S11311100097A1F381E290E0FC0180810F90DF91C0
S1131120CF910895CF93DF93CDB7DEB786E590E0F6
S113113024E9FC012083DF91CF910895CF93DF93BD
S11311400F92CDB7DEB7898382E290E02981FC015A
S113115020830F90DF91CF910895CF93DF93CDB784
S1131160DEB786E590E026E530E0F9012081246CC5
S1131170FC012083000086E590E0FC018081881F4B
S11311808827881F882F90E090700097A1F381E250
S113119090E0FC01808186E590E026E530E0F901ED
S11311A020812068FC012083000086E590E0FC019A
S11311B08081881F8827881F882F90E0907000976F
S11311C0A1F381E290E0FC01808183E290E0FC01E4
S11311D08081DF91CF910895CF93DF930F92CDB7A4
S11311E0DEB7898383E290E02981FC01208386E5D0
S11311F090E024E8FC012083000086E590E0FC01F7
S11312008081881F8827881F882F90E0907000971E
S1131210A1F381E290E0FC0180810F90DF91CF91F6
S11312200895CF93DF93CDB7DEB786E590E024E849
S1131230FC012083000086E590E0FC018081881F8A
S11312408827881F882F90E090700097A1F381E28F
S113125090E0FC01808183E290E0FC018081DF91D9
S1131260CF910895CF93DF93CDB7DEB786E590E0B5
S113127024E8FC012083000086E590E0FC018081E5
S1131280881F8827881F882F90E090700097A1F30B
S113129081E290E0FC01808183E290E0FC018081A6
S11312A0DF91CF9108950F931F93CF93DF93CDB721
S11312B0DEB7C654D0400FB6F894DEBF0FBECDBF24
S11312C060EA76E881E090E00E94C3070E94001E75
S11312D088E78093BE000E94C90182E490E060E048
S11312E070E00E944A0282E490E061E070E00E94B3
S11312F04A0282E490E062E070E00E944A0282E4E2
S113130090E063E070E00E944A0282E490E066E0CC
S113131070E00E944A0282E490E060E070E041E004
S113132050E00E94FE0582E490E061E070E041E05C
S113133050E00E94FE0582E490E062E070E041E04B
S113134050E00E94FE0582E490E063E070E041E03A
S113135050E00E94FE0582E490E066E070E041E027
S113136050E00E94FE050E949C1B82E490E064E031
S113137070E00E944A0282E490E065E070E00E941E
S11313804A0282E490E067E070E00E944A0282E44C
S113139090E064E070E041E050E00E94FE0582E4E9
S11313A090E065E070E041E050E00E94FE0582E4D8
S11313B090E067E070E041E050E00E94FE050E948A
S11313C0AB1C89E790E060E070E043E050E00E94ED
S11313D0AC1D01C0000080916800813009F50E94B5
S11313E00202AA2797FDA095BA2FBC01CD010E9445
S11313F0BA1FDC01CB01BC01CD0120E030E040E8A4
S11314005EE30E946E20DC01CB01BC01CD010E9491
S11314108C1FDC01CB019093C1008093C00038C0C5
S1131420809168008823A1F50E940202AA2797FDF3
S1131430A095BA2FBC01CD010E94BA1FDC01CB01DB
S1131440BC01CD0120E030E040E85EE30E946E2064
S1131450DC01CB01BC01CD0126E636E646EE5FE3B6
S11314600E946E20DC01CB01BC01CD0120E030E004
S113147040E052E40E94241FDC01CB01BC01CD01F9
S11314800E948C1FDC01CB019093C1008093C000AB
S11314908091C0009091C1008A30910538F5809107
S11314A0C0009091C100805D60E070E048E050E0D1
S11314B00E94E41C80916800813041F483E460E080
S11314C070E049E050E00E94E41C0BC08091680089
S11314D0882339F486E460E070E049E050E00E943B
S11314E0E41C8FE790E00E94621DAFC08091C000B1
S11314F09091C1008436910508F046C08091C000E7
S11315009091C1008A30910508F43EC08091C000DA
S11315109091C1002AE030E0B9010E94DD209B01D6
S1131520C901805D60E070E048E050E00E94E41C86
S11315308091C0009091C1002AE030E0B9010E947E
S1131540DD20805D60E070E049E050E00E94E41C32
S113155080916800813041F483E460E070E04AE007
S113156050E00E94E41C0BC080916800882339F489
S113157086E460E070E04AE050E00E94E41C83E806
S113158090E00E94621D61C08091C0009091C100F2
S113159023E0883E920708F058C08091C0009091E3
S11315A0C1008436910508F450C08091C000909128
S11315B0C10024E630E0B9010E94DD209B01C9018D
S11315C0805D60E070E048E050E00E94E41C80919F
S11315D0C0009091C1002AE030E0B9010E94DD20F2
S11315E09B01C9012AE030E0B9010E94DD20805D41
S11315F060E070E049E050E00E94E41C8091C0008B
S11316009091C1002AE030E0B9010E94DD20805DA4
S113161060E070E04AE050E00E94E41C80916800C1
S1131620813041F483E460E070E04BE050E00E94DC
S1131630E41C0BC080916800882339F486E460E0E0
S113164070E04BE050E00E94E41C8091C3008C33B6
S113165038F08091C4008F5F8093C4001092C3005F
S11316608091C4008C3338F08091C5008F5F8093E3
S1131670C5001092C4008091C500883138F01092E2
S1131680C500809164008F5F809364008091640042
S11316908F3140F081E080936400809165008F5F1A
S11316A080936500809165008C3060F081E08093C8
S11316B065008091660090916700019690936700A1
S11316C0809366008091C5009AE0692F0E94D12022
S11316D0805D90916000492F50E090916100292F26
S11316E030E0BA01A9010E94E41C8091C5009AE08F
S11316F0692F0E94D120892F682F605D809160003E
S1131700482F50E080916100882F90E09C012F5F6A
S11317103F4F862FBA01A9010E94E41C809160000A
S1131720482F50E080916100882F90E09C012E5F4B
S11317303F4F8AE3BA01A9010E94E41C8091C400CE
S11317409AE0692F0E94D120682F605D809160002B
S1131750482F50E080916100882F90E09C012D5F1C
S11317603F4F862FBA01A9010E94E41C8091C40056
S11317709AE0692F0E94D120892F682F605D8091A3
S11317806000482F50E080916100882F90E09C0118
S11317902C5F3F4F862FBA01A9010E94E41C80915F
S11317A06000482F50E080916100882F90E09C01F8
S11317B02B5F3F4F8AE3BA01A9010E94E41C809188
S11317C0C3009AE0692F0E94D120682F605D809148
S11317D06000482F50E080916100882F90E09C01C8
S11317E02A5F3F4F862FBA01A9010E94E41C809111
S11317F0C3009AE0692F0E94D120892F682F605D71
S113180080916000482F50E080916100882F90E023
S11318109C01295F3F4F862FBA01A9010E94E41C55
S1131820809166009091670028EE33E0B9010E9430
S1131830DD209B01C901805D90916200492F50E039
S113184090916300292F30E0BA01A9010E94E41CA1
S1131850809166009091670024E630E0B9010E940F
S1131860DD209B01C9012AE030E0B9010E94DD209E
S1131870682F605D80916200482F50E08091630082
S1131880882F90E09C012F5F3F4F862FBA01A9015A
S11318900E94E41C80916600909167002AE030E089
S11318A0B9010E94DD209B01C9012AE030E0B901A1
S11318B00E94DD20682F605D80916200482F50E017
S11318C080916300882F90E09C012E5F3F4F862F0C
S11318D0BA01A9010E94E41C8091660090916700FE
S11318E02AE030E0B9010E94DD20682F605D80911C
S11318F06200482F50E080916300882F90E09C01A3
S11319002D5F3F4F862FBA01A9010E94E41C8091EC
S11319106200482F50E080916300882F90E09C0182
S11319202C5F3F4F8FE2BA01A9010E94E41C809111
S113193065009AE0692F0E94D120682F605D809134
S11319406200482F50E080916300882F90E09C0152
S11319502B5F3F4F862FBA01A9010E94E41C80919E
S113196065009AE0692F0E94D120892F682F605D5D
S113197080916200482F50E080916300882F90E0AE
S11319809C012A5F3F4F862FBA01A9010E94E41CE3
S113199080916200482F50E080916300882F90E08E
S11319A09C01295F3F4F8FE2BA01A9010E94E41C08
S11319B0809164009AE0692F0E94D120682F605DB5
S11319C080916200482F50E080916300882F90E05E
S11319D09C01285F3F4F862FBA01A9010E94E41C95
S11319E0809164009AE0692F0E94D120892F682F8A
S11319F0605D80916200482F50E080916300882FE1
S1131A0090E09C01275F3F4F862FBA01A9010E94F5
S1131A10E41C82E490E060E070E00E945B0290933A
S1131A206A008093690082E490E061E070E00E94C3
S1131A305B0290936C0080936B0082E490E062E020
S1131A4070E00E945B0290936E0080936D0082E4CC
S1131A5090E063E070E00E945B02909370008093DA
S1131A606F0082E490E066E070E00E945B02909375
S1131A7076008093750082E490E064E070E00E9458
S1131A805B02909372008093710082E490E065E0C1
S1131A9070E00E945B02909374008093730082E470
S1131AA090E067E070E00E945B029093780080937E
S1131AB07700000082E490E064E070E00E945B0242
S1131AC0009781F482E490E065E070E00E945B029C
S1131AD0009741F482E490E067E070E00E945B02CA
S1131AE0009741F38091710090917200009739F44E
S1131AF080916800813019F4109268000DC08091C3
S1131B00710090917200009739F4809168008823E5
S1131B1019F481E0809368008091770090917800B7
S1131B20009741F48091CA00882321F481E08093D6
S1131B30CA000CC010927800109277008091770050
S1131B4090917800009711F01092CA0080E090E024
S1131B50A6E9B3E489839A83AB83BC8369817A81E0
S1131B608B819C8120E030E04AEF54E40E946E2097
S1131B70DC01CB018D839E83AF83B88711E06D8137
S1131B807E818F81988520E030E040E85FE30E9409
S1131B90881F88230CF010E0112329F081E090E0E5
S1131BA09A87898746C011E06D817E818F819885EF
S1131BB020E03FEF4FE757E40E946A2018160CF02C
S1131BC010E0112361F169817A818B819C8120E08D
S1131BD030E040E251E40E946E20DC01CB01BC0104
S1131BE0CD010E948C1FDC01CB019A87898712C02A
S1131BF088EC90E09C878B878B859C858C01C80141
S1131C000197F1F78C011C870B8789859A850197C9
S1131C109A87898789859A85009751F717C06D81BE
S1131C207E818F8198850E948C1FDC01CB019A876D
S1131C30898789859A859E878D878D859E858C0168
S1131C40F8013197F1F78F011E870D8782E490E048
S1131C5066E070E00E945B02009709F0C2C08091C8
S1131C606100882309F4BDC080916300882309F4CE
S1131C70B8C08091CA00813009F0B3C0000082E48A
S1131C8090E066E070E00E945B020097C1F380E0A0
S1131C9090E0AAE7B3E48F87988BA98BBA8B6F8502
S1131CA0788989899A8920E030E04AEF54E40E94D7
S1131CB06E20DC01CB018B8B9C8BAD8BBE8B11E03A
S1131CC06B897C898D899E8920E030E040E85FE360
S1131CD00E94881F88230CF010E0112329F081E072
S1131CE090E0988F8F8B46C011E06B897C898D8939
S1131CF09E8920E03FEF4FE757E40E946A201816C0
S1131D000CF010E0112361F16F85788989899A8933
S1131D1020E030E040E251E40E946E20DC01CB017F
S1131D20BC01CD010E948C1FDC01CB01988F8F8BED
S1131D3012C088EC90E09A8F898F898D9A8D8C01DE
S1131D40C8010197F1F78C011A8F098F8F89988D3B
S1131D500197988F8F8B8F89988D009751F717C0B3
S1131D606B897C898D899E890E948C1FDC01CB0143
S1131D70988F8F8B8F89988D9C8F8B8F8B8D9C8D5B
S1131D808C01F8013197F1F78F011C8F0B8F809133
S1131D906000482F50E080916100882F90E09C0102
S1131DA0295F3F4F80E2BA01A9010E94E41C80919F
S1131DB06200482F50E080916300882F90E09C01DE
S1131DC0275F3F4F80E2BA01A9010E94E41C809181
S1131DD06100815080936100809163008150809301
S1131DE0630082E490E065E070E00E945B0200978B
S1131DF009F0BCC080916100873008F0B7C08091C1
S1131E006300873008F0B2C08091CA00813009F0C5
S1131E10ADC0000082E490E065E070E00E945B02E7
S1131E200097C1F380E090E0AAE7B3E48D8F9E8F22
S1131E30AF8FB8A36D8D7E8D8F8D98A120E030E09B
S1131E404AEF54E40E946E20DC01CB0189A39AA3DB
S1131E50ABA3BCA311E069A17AA18BA19CA120E052
S1131E6030E040E85FE30E94881F88230CF010E014
S1131E70112329F081E090E09EA38DA346C011E0D8
S1131E8069A17AA18BA19CA120E03FEF4FE757E421
S1131E900E946A2018160CF010E0112361F16D8D78
S1131EA07E8D8F8D98A120E030E040E251E40E94C5
S1131EB06E20DC01CB01BC01CD010E948C1FDC0132
S1131EC0CB019EA38DA312C088EC90E098A78FA3AA
S1131ED08FA198A58C01C8010197F1F78C0118A76F
S1131EE00FA38DA19EA101979EA38DA38DA19EA159
S1131EF0009751F717C069A17AA18BA19CA10E94F8
S1131F008C1FDC01CB019EA38DA38DA19EA19AA75A
S1131F1089A789A59AA58C01F8013197F1F78F015A
S1131F201AA709A780916000482F50E080916100B2
S1131F30282F30E080E2BA01A9010E94E41C8091BC
S1131F406200482F50E080916300282F30E080E247
S1131F50BA01A9010E94E41C809161008F5F809303
S1131F606100809163008F5F8093630082E490E05E
S1131F7062E070E00E945B02009709F0D2C0809199
S1131F806000823008F4CDC080916200823008F491
S1131F90C8C08091CA00813009F0C3C0000082E447
S1131FA090E062E070E00E945B020097C1F380E081
S1131FB090E0AAE7B3E48BA79CA7ADA7BEA76BA547
S1131FC07CA58DA59EA520E030E04AEF54E40E9454
S1131FD06E20DC01CB018FA798ABA9ABBAAB11E0A3
S1131FE06FA578A989A99AA920E030E040E85FE3C9
S1131FF00E94881F88230CF010E0112329F081E04F
S113200090E09CAB8BAB46C011E06FA578A989A981
S11320109AA920E03FEF4FE757E40E946A20181680
S11320200CF010E0112361F16BA57CA58DA59EA594
S113203020E030E040E251E40E946E20DC01CB015C
S1132040BC01CD010E948C1FDC01CB019CAB8BAB8E
S113205012C088EC90E09EAB8DAB8DA99EA98C013B
S1132060C8010197F1F78C011EAB0DAB8BA99CA99C
S113207001979CAB8BAB8BA99CA9009751F717C018
S11320806FA578A989A99AA90E948C1FDC01CB01AC
S11320909CAB8BAB8BA99CA998AF8FAB8FA998AD48
S11320A08C01F8013197F1F78F0118AF0FAB8091D4
S11320B063008093C2001FC080916000482F50E0ED
S11320C08091C200282F30E080E2BA01A9010E9469
S11320D0E41C80916200482F50E08091C200282FB8
S11320E030E080E2BA01A9010E94E41C8091C200A0
S11320F08F5F8093C2008091C200282F30E08091CE
S11321006300882F90E0099682179307ACF68091BC
S113211060008150809360008091620081508093C0
S1132120620082E490E063E070E00E945B0200974A
S113213009F015C180916000873008F010C18091CA
S11321406200873008F00BC18091CA00813009F029
S113215006C1000082E490E063E070E00E945B024C
S11321600097C1F380E090E0AAE7B3E489AF9AAFA7
S1132170ABAFBCAF69AD7AAD8BAD9CAD20E030E0C8
S11321804AEF54E40E946E20DC01CB019E01235CE3
S11321903F4FF90180839183A283B38311E0CE0181
S11321A0CD96FC01608171818281938120E030E0D1
S11321B040E85FE30E94881F88230CF010E011239D
S11321C049F0CE018F5B9F4F21E030E0FC01318369
S11321D020836EC011E0CE01CD96FC016081718137
S11321E08281938120E03FEF4FE757E40E946A2009
S11321F018160CF010E0112309F449C069AD7AAD4A
S11322008BAD9CAD20E030E040E251E40E946E20B2
S1132210DC01CB018E010F5B1F4FBC01CD010E947D
S11322208C1FDC01CB01F8019183808327C0CE0190
S11322308D5B9F4F28EC30E0FC0131832083CE017D
S11322408D5B9F4FFC01808191818C01C8010197B6
S1132250F1F78C01CE018D5B9F4FFC01118300834C
S1132260CE018F5B9F4F9E012F5B3F4FF901208171
S1132270318121503040FC0131832083CE018F5BBA
S11322809F4FFC0180819181009789F62EC08E01B9
S11322900F5B1F4FCE01CD96FC016081718182815D
S11322A093810E948C1FDC01CB01F8019183808310
S11322B0CE018B5B9F4F9E012F5B3F4FF901208125
S11322C03181FC0131832083CE018B5B9F4FFC0164
S11322D0808191818C01C8010197F1F78C01CE01B5
S11322E08B5B9F4FFC01118300838091630080937B
S11322F0C2001FC080916000482F50E08091C2004E
S1132300282F30E080E2BA01A9010E94E41C8091E8
S11323106200482F50E08091C200282F30E080E214
S1132320BA01A9010E94E41C8091C2008F5F8093CE
S1132330C2008091C200282F30E080916300882F72
S113234090E0099682179307ACF6809160008F5F46
S113235080936000809162008F5F8093620080911F
S1132360690090916A008130910541F480916B007D
S113237090916C008130910509F42DC88091690019
S113238090916A00009709F0DCC30E94AB1C000026
S113239082E490E060E070E00E945B020097C1F389
S11323A01092C6001092C70085E890E063E070E0E8
S11323B044E050E00E94AC1D8091C600805D63E063
S11323C070E04AE050E00E94E41C82E490E060E0A7
S11323D070E00E945B0290936A008093690082E43B
S11323E090E062E070E00E945B0290936E00809344
S11323F06D0082E490E063E070E00E945B029093E1
S1132400700080936F0080916D0090916E00813018
S1132410910571F480916F00909170008130910565
S113242039F48091690090916A008130910569F2D4
S1132430000082E490E063E070E00E945B02009799
S1132440C1F382E490E062E070E00E945B020097D6
S113245081F380916D0090916E00009791F48091CA
S1132460C600823020F48091C700853020F080912E
S1132470C600882331F48091C6008F5F8093C60024
S11324800FC080916F0090917000009749F4809183
S1132490C600882329F08091C60081508093C6002D
S11324A082E490E060E070E00E945B02813091057C
S11324B009F482CF000082E490E060E070E00E94C2
S11324C05B020097C1F38091C700805D63E070E018
S11324D04BE050E00E94E41C82E490E060E070E095
S11324E00E945B0290936A008093690082E490E00A
S11324F062E070E00E945B0290936E0080936D0036
S113250082E490E063E070E00E945B0290937000CC
S113251080936F0082E490E066E070E00E945B02CA
S1132520909376008093750080916D0090916E0079
S113253081309105B1F480916F00909170008130E9
S1132540910579F48091690090916A008130910538
S113255041F480917500909176008130910509F4E1
S1132560BBCF000082E490E063E070E00E945B0275
S11325700097C1F382E490E062E070E00E945B02A5
S1132580009781F382E490E066E070E00E945B02D1
S1132590009741F380916D0090916E000097B1F423
S11325A08091C600823021F48091C700843040F0CD
S11325B08091C600823050F48091C700893030F495
S11325C08091C7008F5F8093C7001EC080916F0009
S11325D090917000009751F48091C700882331F0E6
S11325E08091C70081508093C7000EC08091750010
S11325F090917600009741F48DE263E070E04BE047
S113260050E00E94E41CD8CE82E490E060E070E0E8
S11326100E945B028130910509F455CF8091C60078
S1132620880F982F990F990F980F8091C700890FE1
S11326308093C500000082E490E060E070E00E94B6
S11326405B020097C1F30E94AB1C1092C60010926B
S1132650C7008EE890E063E070E043E050E00E9441
S1132660AC1D8091C600805D63E070E04BE050E0FB
S11326700E94E41C82E490E060E070E00E945B024F
S113268090936A008093690082E490E062E070E0D5
S11326900E945B0290936E0080936D0082E490E050
S11326A063E070E00E945B029093700080936F007F
S11326B080916D0090916E008130910571F480914C
S11326C06F00909170008130910539F48091690018
S11326D090916A008130910569F2000082E490E0F3
S11326E063E070E00E945B020097C1F382E490E033
S11326F062E070E00E945B02009781F380916D00BC
S113270090916E00009751F48091C600853030F4AA
S11327108091C6008F5F8093C6000FC080916F00C8
S113272090917000009749F48091C600882329F0A5
S11327308091C60081508093C60080916900909179
S11327406A008130910509F48CCF000082E490E0A6
S113275060E070E00E945B020097C1F38091C700C3
S1132760805D63E070E04CE050E00E94E41C82E491
S113277090E060E070E00E945B0290936A008093B6
S1132780690082E490E062E070E00E945B02909352
S11327906E0080936D0082E490E063E070E00E943C
S11327A05B029093700080936F0082E490E066E097
S11327B070E00E945B029093760080937500809194
S11327C06D0090916E0081309105B1F480916F009D
S11327D0909170008130910579F480916900909115
S11327E06A008130910541F48091750090917600E2
S11327F08130910509F4BBCF000082E490E063E0EE
S113280070E00E945B020097C1F382E490E062E012
S113281070E00E945B02009781F382E490E066E03E
S113282070E00E945B02009741F380916D009091EB
S11328306E00009751F48091C700893030F4809184
S1132840C7008F5F8093C7001EC080916F00909176
S11328507000009751F48091C700882331F0809173
S1132860C70081508093C7000EC08091750090917D
S11328707600009741F48DE263E070E04CE050E0B4
S11328800E94E41CEECE8091690090916A00813030
S1132890910509F463CF8091C600880F982F990F92
S11328A0990F980F8091C700890F8093C40000008E
S11328B082E490E060E070E00E945B020097C1F364
S11328C00E94AB1C1092C6001092C70089E990E0E8
S11328D063E070E043E050E00E94AC1D8091C600CC
S11328E0805D63E070E04BE050E00E94E41C82E411
S11328F090E060E070E00E945B0290936A00809335
S1132900690082E490E062E070E00E945B029093D0
S11329106E0080936D0082E490E063E070E00E94BA
S11329205B029093700080936F0080916D00909192
S11329306E008130910571F480916F009091700068
S11329408130910539F48091690090916A00813059
S1132950910569F2000082E490E063E070E00E9477
S11329605B020097C1F382E490E062E070E00E94B1
S11329705B02009781F380916D0090916E00009747
S113298051F48091C600853030F48091C6008F5F89
S11329908093C6000FC080916F00909170000097E3
S11329A049F48091C600882329F08091C6008150A3
S11329B08093C6008091690090916A0081309105EE
S11329C009F48CCF000082E490E060E070E00E94A3
S11329D05B020097C1F38091C700805D63E070E003
S11329E04CE050E00E94E41C82E490E060E070E07F
S11329F00E945B0290936A008093690082E490E0F5
S1132A0062E070E00E945B0290936E0080936D0020
S1132A1082E490E063E070E00E945B0290937000B7
S1132A2080936F0082E490E066E070E00E945B02B5
S1132A30909376008093750080916D0090916E0064
S1132A4081309105B1F480916F00909170008130D4
S1132A50910579F48091690090916A008130910523
S1132A6041F480917500909176008130910509F4CC
S1132A70BBCF000082E490E063E070E00E945B0260
S1132A800097C1F382E490E062E070E00E945B0290
S1132A90009781F382E490E066E070E00E945B02BC
S1132AA0009741F380916D0090916E00009751F46E
S1132AB08091C700893030F48091C7008F5F809384
S1132AC0C7001EC080916F0090917000009751F470
S1132AD08091C700882331F08091C7008150809392
S1132AE0C7000EC08091750090917600009741F464
S1132AF08DE263E070E04CE050E00E94E41CEECE16
S1132B0082E490E060E070E00E945B028130910515
S1132B1009F461CF8091C600880F982F990F990FFF
S1132B20980F8091C700890F8093C300000082E44E
S1132B3090E060E070E00E945B020097C1F30C94A7
S1132B40DF0980916B0090916C00009711F00C9458
S1132B50EA090E94AB1C000082E490E061E070E0AE
S1132B600E945B020097C1F382E08093C60010923A
S1132B70C70082E08093C80084E08093C90084EA9F
S1132B8090E063E070E044E050E00E94AC1D80916E
S1132B90C600805D63E070E049E050E00E94E41C00
S1132BA082E490E061E070E00E945B0290936C002C
S1132BB080936B0082E490E062E070E00E945B022C
S1132BC090936E0080936D0082E490E063E070E087
S1132BD00E945B029093700080936F0080916D005F
S1132BE090916E008130910571F480916F00909105
S1132BF070008130910539F480916B0090916C00E4
S1132C008130910569F2000082E490E063E070E0B5
S1132C100E945B020097C1F382E490E062E070E0FE
S1132C200E945B02009781F380916D0090916E0089
S1132C30009751F48091C600823030F48091C60030
S1132C408F5F8093C6000FC080916F0090917000D9
S1132C50009749F48091C600823028F08091C60024
S1132C6081508093C60082E490E061E070E00E94AD
S1132C705B028130910509F48ACF000082E490E080
S1132C8061E070E00E945B020097C1F38091C7008D
S1132C90805D63E070E04AE050E00E94E41C82E45E
S1132CA090E061E070E00E945B0290936C0080937E
S1132CB06B0082E490E062E070E00E945B0290931B
S1132CC06E0080936D0082E490E063E070E00E9407
S1132CD05B029093700080936F0082E490E066E062
S1132CE070E00E945B02909376008093750080915F
S1132CF06D0090916E0081309105B1F480916F0068
S1132D00909170008130910579F480916B009091DD
S1132D106C008130910541F48091750090917600AA
S1132D208130910509F4BBCF000082E490E063E0B8
S1132D3070E00E945B020097C1F382E490E062E0DD
S1132D4070E00E945B02009781F382E490E066E009
S1132D5070E00E945B02009741F380916D009091B6
S1132D606E00009751F48091C700893030F480914F
S1132D70C7008F5F8093C7001EC080916F00909141
S1132D807000009751F48091C700882331F080913E
S1132D90C70081508093C7000EC080917500909148
S1132DA07600009741F48DE263E070E04AE050E081
S1132DB00E94E41CECCE82E490E061E070E00E94AA
S1132DC05B028130910509F461CF000082E490E058
S1132DD061E070E00E945B020097C1F38091C8003B
S1132DE0805D63E070E04BE050E00E94E41C82E40C
S1132DF090E061E070E00E945B0290936C0080932D
S1132E006B0082E490E062E070E00E945B029093C9
S1132E106E0080936D0082E490E063E070E00E94B5
S1132E205B029093700080936F0082E490E066E010
S1132E3070E00E945B02909376008093750080910D
S1132E406D0090916E0081309105B1F480916F0016
S1132E50909170008130910579F480916B0090918C
S1132E606C008130910541F4809175009091760059
S1132E708130910509F4BBCF000082E490E063E067
S1132E8070E00E945B020097C1F382E490E062E08C
S1132E9070E00E945B02009781F382E490E066E0B8
S1132EA070E00E945B02009741F380916D00909165
S1132EB06E00009751F48091C800893030F48091FD
S1132EC0C8008F5F8093C8001EC080916F009091EE
S1132ED07000009751F48091C800882331F08091EC
S1132EE0C80081508093C8000EC0809175009091F5
S1132EF07600009741F48DE263E070E04BE050E02F
S1132F000E94E41CC3CE82E490E061E070E00E9481
S1132F105B028130910509F461CF000082E490E006
S1132F2061E070E00E945B020097C1F38091C900E8
S1132F30805D63E070E04CE050E00E94E41C82E4B9
S1132F4090E061E070E00E945B0290936C008093DB
S1132F506B0082E490E062E070E00E945B02909378
S1132F606E0080936D0082E490E063E070E00E9464
S1132F705B029093700080936F0082E490E066E0BF
S1132F8070E00E945B0290937600809375008091BC
S1132F906D0090916E0081309105B1F480916F00C5
S1132FA0909170008130910579F480916B0090913B
S1132FB06C008130910541F4809175009091760008
S1132FC08130910509F4BBCF000082E490E063E016
S1132FD070E00E945B020097C1F382E490E062E03B
S1132FE070E00E945B02009781F382E490E066E067
S1132FF070E00E945B02009741F380916D00909114
S11330006E00009751F48091C900893030F48091AA
S1133010C9008F5F8093C9001EC080916F0090919A
S11330207000009751F48091C900882331F0809199
S1133030C90081508093C9000EC0809175009091A1
S11330407600009741F48DE263E070E04CE050E0DC
S11330500E94E41CC3CE82E490E061E070E00E9430
S11330605B028130910509F461CF000082E490E0B5
S113307061E070E00E945B020097C1F38091C6009A
S1133080482F50E088EE93E0489F9001499F300D0F
S1133090589F300D11248091C700682F70E044E6DA
S11330A050E0649FC001659F900D749F900D1124A2
S11330B0280F391F8091C800882F90E0880F991F2E
S11330C0AC01440F551F440F551F840F951F280F43
S11330D0391F8091C900882F90E0820F931F90932D
S11330E06700809366000E94AB1C1092C60081E0CA
S11330F08093C7008EEA90E063E070E044E050E023
S11331000E94AC1D8091C600805D63E070E04AE0DF
S113311050E00E94E41C82E490E061E070E00E94D0
S11331205B0290936C0080936B0082E490E062E019
S113313070E00E945B0290936E0080936D0082E4C5
S113314090E063E070E00E945B02909370008093D3
S11331506F0080916D0090916E008130910571F443
S113316080916F00909170008130910539F48091C5
S11331706B0090916C008130910569F2000082E44B
S113318090E063E070E00E945B020097C1F382E488
S113319090E062E070E00E945B02009781F380910E
S11331A06D0090916E00009751F48091C6008823C1
S11331B031F48091C6008F5F8093C60017C0809160
S11331C06F0090917000009789F48091C600882365
S11331D021F08091C700882321F48091C6008230B9
S11331E028F08091C60081508093C60080916B00C6
S11331F090916C008130910509F484CF000082E441
S113320090E061E070E00E945B020097C1F380915E
S1133210C700805D63E070E04BE050E00E94E41C76
S113322082E490E061E070E00E945B0290936C00A5
S113323080936B0082E490E062E070E00E945B02A5
S113324090936E0080936D0082E490E063E070E000
S11332500E945B029093700080936F0082E490E080
S113326066E070E00E945B029093760080937500A4
S113327080916D0090916E0081309105B1F4809140
S11332806F00909170008130910579F480916B000A
S113329090916C008130910541F48091750090917A
S11332A076008130910509F4BBCF000082E490E000
S11332B063E070E00E945B020097C1F382E490E057
S11332C062E070E00E945B02009781F382E490E088
S11332D066E070E00E945B02009741F380916D000C
S11332E090916E000097B1F48091C700893020F46A
S11332F08091C600882341F08091C700823050F449
S11333008091C600813031F48091C7008F5F809333
S1133310C7002AC080916F00909170000097B1F4AB
S11333208091C700882321F08091C600813041F04C
S11333308091C700823050F08091C600882331F418
S11333408091C70081508093C7000EC080917500A2
S113335090917600009741F48DE263E070E04BE0D9
S113336050E00E94E41CCECE80916B0090916C00E2
S11333708130910509F44BCF8091C600880F982FB6
S1133380990F990F980F8091C700890F809365005A
S1133390000082E490E061E070E00E945B0200972C
S11333A0C1F30E94AB1C1092C60081E08093C70059
S11333B087EB90E063E070E045E050E00E94AC1DD4
S11333C08091C600805D63E070E049E050E00E94B7
S11333D0E41C82E490E061E070E00E945B02909360
S11333E06C0080936B0082E490E062E070E00E94E5
S11333F05B0290936E0080936D0082E490E063E042
S113340070E00E945B029093700080936F00809143
S11334106D0090916E008130910571F480916F0080
S1133420909170008130910539F480916B009091F6
S11334306C008130910569F2000082E490E063E061
S113344070E00E945B020097C1F382E490E062E0C6
S113345070E00E945B02009781F380916D0090916F
S11334606E00009751F48091C600833030F480914F
S1133470C6008F5F8093C60017C080916F00909143
S11334807000009789F48091C600882321F0809110
S1133490C700813021F08091C600823028F08091ED
S11334A0C60081508093C60080916B0090916C009F
S11334B08130910509F484CF000082E490E061E05A
S11334C070E00E945B020097C1F38091C700805DA9
S11334D063E070E04AE050E00E94E41C82E490E083
S11334E061E070E00E945B0290936C0080936B003B
S11334F082E490E062E070E00E945B0290936E00D0
S113350080936D0082E490E063E070E00E945B02CF
S11335109093700080936F0082E490E066E070E026
S11335200E945B02909376008093750080916D00F9
S113353090916E0081309105B1F480916F0090916B
S113354070008130910579F480916B0090916C004A
S11335508130910541F4809175009091760081301D
S1133560910509F4BBCF000082E490E063E070E0D1
S11335700E945B020097C1F382E490E062E070E095
S11335800E945B02009781F382E490E066E070E0C1
S11335900E945B02009741F380916D0090916E0050
S11335A00097B1F48091C700893020F48091C6005F
S11335B0833040F08091C700882351F48091C60085
S11335C0833031F48091C7008F5F8093C7002AC095
S11335D080916F00909170000097B1F48091C700C2
S11335E0882321F08091C600882341F48091C7008C
S11335F0823050F08091C600882331F48091C70056
S113360081508093C7000EC0809175009091760020
S1133610009741F48DE263E070E04AE050E00E94DC
S1133620E41CCECE82E490E061E070E00E945B0294
S11336308130910509F449CF8091C600880F982FF5
S1133640990F990F980F8091C700890F8093640098
S1133650000082E490E061E070E00E945B02009769
S1133660C1F30C94DF091F920F920FB60F9211242D
S11336708F93CF93DF93CDB7DEB78091C3008F5F75
S11336808093C300DF91CF918F910F900FBE0F9065
S11336901F901895CF93DF9300D0CDB7DEB78A8300
S11336A019820E94FE078091BE000E944008898111
S11336B00E9469088A810E9469080E9492080F90FA
S11336C00F90DF91CF910895CF93DF930F92CDB7F1
S11336D0DEB789830E94FE078091BE000E944008E5
S11336E080E40E94690889810E9469080E94920806
S11336F00F90DF91CF910895CF93DF93CDB7DEB7CD
S113370081E20E944A1B80E00E944A1B8FE70E94CC
S11337104A1BDF91CF910895CF93DF93CDB7DEB7E6
S113372082E20E944A1B80E00E944A1B87E00E94BA
S11337304A1BDF91CF9108950F931F93CF93DF938B
S1133740CDB7DEB72E970FB6F894DEBF0FBECDBF50
S11337508AE390E02AE330E0F90120812461FC014E
S113376020838BE390E02BE330E0F9012081246097
S1133770FC01208380E090E0A8ECB2E489839A8382
S1133780AB83BC8369817A818B819C8120E030E0AA
S11337904AEF54E40E946E20DC01CB018D839E83AA
S11337A0AF83B88711E06D817E818F81988520E099
S11337B030E040E85FE30E94881F88230CF010E0AB
S11337C0112329F081E090E09A87898746C011E0AF
S11337D06D817E818F81988520E03FEF4FE757E42C
S11337E00E946A2018160CF010E0112361F169811F
S11337F07A818B819C8120E030E040E251E40E9498
S11338006E20DC01CB01BC01CD010E948C1FDC01C8
S1133810CB019A87898712C088EC90E09C878B87BC
S11338208B859C858C01C8010197F1F78C011C875D
S11338300B8789859A8501979A87898789859A85CF
S1133840009751F717C06D817E818F8198850E9402
S11338508C1FDC01CB019A87898789859A859E878D
S11338608D878D859E858C01F8013197F1F78F0145
S11338701E870D878EEA0E944A1B85ED0E944A1B13
S113388080E80E944A1B88EA0E944A1B8FE30E9438
S11338904A1B83ED0E944A1B80E00E944A1B80E47D
S11338A00E944A1B8DE80E944A1B84E10E944A1B25
S11338B081EA0E944A1B88EC0E944A1B8AED0E94FE
S11338C04A1B82E10E944A1B81E80E944A1B8FEC3A
S11338D00E944A1B89ED0E944A1B81EF0E944A1BE9
S11338E08BED0E944A1B80E40E944A1B84EA0E94DA
S11338F04A1B86EA0E944A1B8FEA0E944A1B2E96A4
S11339000FB6F894DEBF0FBECDBFDF91CF911F91EC
S11339100F910895CF93DF93CDB7DEB70E94A11C1A
S11339200E94AB1C0E94971CDF91CF910895CF9306
S1133930DF93CDB7DEB78FEA0E944A1BDF91CF91A8
S11339400895CF93DF93CDB7DEB78EEA0E944A1B6A
S1133950DF91CF910895CF93DF9300D0CDB7DEB739
S11339601A8212C08A8160E00E94361D198206C044
S113397080E00E94CC1C89818F5F898389818823A0
S1133980BCF78A818F5F8A838A81883058F30F90CD
S11339900F90DF91CF910895CF93DF930F92CDB71E
S11339A0DEB789830E94FE078091BE000E94400812
S11339B080E40E94690889810E9469080E94920833
S11339C00F90DF91CF9108951F93CF93DF93CDB7DD
S11339D0DEB72A970FB6F894DEBF0FBECDBF8E8335
S11339E078876F835A8749878F819985692F0E94C9
S11339F0361D0E94FE078091BE000E94400880E4AC
S1133A000E9469081A82198220C08E81882F90E052
S1133A1080979C01220F331F220F331F220F331F65
S1133A2089819A81820F931F8C5A9F4F9C838B8329
S1133A308B819C81FC0114911D838D810E946908F6
S1133A4089819A8101969A83898389819A818830B0
S1133A509105DCF20E9492082A960FB6F894DEBF14
S1133A600FBECDBFDF91CF911F910895CF93DF9308
S1133A7000D0CDB7DEB789836A83898180550E94DF
S1133A804A1B8A81880F880F880F8F700E944A1BF7
S1133A908A81882F90E0880F991F880F991F880FBB
S1133AA0991F95958795959587959595879595955E
S1133AB087958F70805F0E944A1B0F900F90DF9153
S1133AC0CF9108951F93CF93DF9300D000D000D0FF
S1133AD0CDB7DEB79E838D8319822CC0198222C094
S1133AE08D819E81FC018081882F90E080979C01CC
S1133AF0220F331F220F331F220F331F8981882F78
S1133B0090E0820F931F8C5A9F4F9B838A838A81F4
S1133B109B81FC0114911C838C810E94CC1C8981A3
S1133B208F5F898389818830D8F28D819E81019647
S1133B309E838D838D819E81FC018081882F90E0FE
S1133B40009761F626960FB6F894DEBF0FBECDBF80
S1133B50DF91CF911F9108951F93CF93DF93CDB73A
S1133B60DEB72A970FB6F894DEBF0FBECDBF9E8393
S1133B708D8378876F835A8749878F819985692FC9
S1133B800E94361D19822CC0198222C08D819E810B
S1133B90FC018081882F90E080979C01220F331FC5
S1133BA0220F331F220F331F8981882F90E0820F49
S1133BB0931F8C5A9F4F9B838A838A819B81FC012C
S1133BC014911C838C810E94CC1C89818F5F898312
S1133BD089818830D8F28D819E8101969E838D8360
S1133BE08D819E81FC018081882371F62A960FB60F
S1133BF0F894DEBF0FBECDBFDF91CF911F91089522
S1133C00CF93DF93CDB7DEB782E490E022E430E0D7
S1133C10F90120812860FC01208385E490E025E4FB
S1133C2030E0F90120812160FC01208385E490E0EB
S1133C3025E430E0F90120812460FC01208378949C
S1133C4089E590E029E530E0F90120812064FC0158
S1133C502083DF91CF910895CF93DF93CDB7DEB763
S1133C6083E590E023E530E0F90120812860FC0140
S1133C7020838CE590E020E5FC01208383E590E03F
S1133C8023E530E0F90120812160FC01208383E5F4
S1133C9090E023E530E0F90120812460FC012083D9
S1133CA0789489E590E029E530E0F90120812260EB
S1133CB0FC012083DF91CF910895CF93DF93CDB79B
S1133CC0DEB787E390E027E330E0F9012081286044
S1133CD0FC01208383E590E023E530E0F9012081B5
S1133CE02860FC0120838CE590E020E4FC01208323
S1133CF083E590E023E530E0F90120812160FC01B7
S1133D00208383E590E023E530E0F90120812460FD
S1133D10FC01208383E590E023E530E0F901208174
S1133D202061FC012083DF91CF910895CF93DF932D
S1133D30CDB7DEB787E390E027E330E0F9012081D7
S1133D402860FC01208383E590E023E530E0F9015D
S1133D5020812064FC01208383E590E023E530E0AA
S1133D60F90120812860FC0120838CE590E020E4A7
S1133D70FC01208383E590E023E530E0F901208114
S1133D802160FC01208383E590E023E530E0F90124
S1133D9020812460FC01208383E590E023E530E06A
S1133DA0F90120812061FC01208383E590E023E573
S1133DB030E0F90120812062FC012083DF91CF9162
S1133DC00895CF93DF93CDB7DEB787E390E027E381
S1133DD030E0F90120812860FC01208383E590E034
S1133DE023E530E0F90120812064FC0120838CE587
S1133DF090E020E4FC01208383E590E023E530E0BB
S1133E00F90120812160FC01208383E590E023E512
S1133E1030E0F90120812460FC01208383E590E0F7
S1133E2023E530E0F90120812061FC01208383E552
S1133E3090E023E530E0F90120812062FC01208339
S1133E40DF91CF9108955058BB27AA270ED008C1FF
S1133E50F9D030F0FED020F031F49F3F11F41EF47D
S1133E60EEC00EF4E095E7FBE4C0E92F0AD180F33D
S1133E70BA17620773078407950718F071F49EF563
S1133E8022C10EF4E0950B2EBA2FA02D0B01B9011F
S1133E9090010C01CA01A0011124FF27591B99F0BC
S1133EA0593F50F4503E68F11A16F040A22F232FC8
S1133EB0342F4427585FF3CF469537952795A79518
S1133EC0F0405395C9F77EF41F16BA0B620B730BBF
S1133ED0840BBAF09150A1F0FF0FBB1F661F771F30
S1133EE0881FC2F70EC0BA0F621F731F841F48F4E5
S1133EF0879577956795B795F7959E3F08F0B3CF6B
S1133F009395880F08F09927EE0F97958795089554
S1133F106CD008F481E00895BCD088F09F5790F0ED
S1133F20B92F9927B751A0F0D1F0660F771F881FDA
S1133F30991F1AF0BA95C9F712C0B13081F0C3D0F5
S1133F40B1E00895C0C0672F782F8827B85F39F093
S1133F50B93FCCF3869577956795B395D9F73EF439
S1133F6090958095709561957F4F8F4F9F4F0895E1
S1133F70E89409C097FB3EF49095809570956195FF
S1133F807F4F8F4F9F4F9923A9F0F92F96E9BB27B5
S1133F909395F695879577956795B795F111F8CF31
S1133FA0FAF4BB0F11F460FF1BC06F5F7F4F8F4F9C
S1133FB09F4F16C0882311F096E911C0772321F092
S1133FC09EE8872F762F05C0662371F096E8862F2A
S1133FD070E060E02AF09A95660F771F881FDAF781
S1133FE0880F9695879597F90895990F0008550FAE
S1133FF0AA0BE0E8FEEF16161706E807F907C0F06B
S113400012161306E407F50798F0621B730B840B72
S1134010950B39F40A2661F0232B242B252B21F44C
S113402008950A2609F4A140A6958FEF811D811DEC
S1134030089597F99F6780E870E060E008959FEF26
S113404080EC089500240A9416161706180609062B
S1134050089500240A9412161306140605060895FA
S1134060092E0394000C11F4882352F0BB0F40F482
S1134070BF2B11F460FF04C06F5F7F4F8F4F9F4FC2
S1134080089557FD9058440F551F59F05F3F71F044
S11340904795880F97FB991F61F09F3F79F08795AB
S11340A00895121613061406551FF2CF4695F1DF34
S11340B008C0161617061806991FF1CF86957105C4
S11340C0610508940895E894BB2766277727CB01F8
S11340D097F908958ADF08F48FEF08950BD0C0CFC5
S11340E0B1DF28F0B6DF18F0952309F0A2CFA7CFEF
S11340F01124EACFC6DFA0F3959FD1F3950F50E0CA
S1134100551F629FF001729FBB27F00DB11D639F85
S1134110AA27F00DB11DAA1F649F6627B00DA11D2B
S1134120661F829F2227B00DA11D621F739FB00DD1
S1134130A11D621F839FA00D611D221F749F332741
S1134140A00D611D231F849F600D211D822F762FDA
S11341506A2F11249F5750408AF0E1F088234AF0D7
S1134160EE0FFF1FBB1F661F771F881F9150504023
S1134170A9F79E3F510570F05CCFA6CF5F3FECF3EB
S1134180983EDCF3869577956795B795F795E7950F
S11341909F5FC1F7FE2B880F911D9695879597F920
S11341A00895991B79E004C0991F961708F0961B8F
S11341B0881F7A95C9F780950895AA1BBB1B51E106
S11341C007C0AA1FBB1FA617B70710F0A61BB70B83
S11341D0881F991F5A95A9F780959095BC01CD0128
S11341E00895A1E21A2EAA1BBB1BFD010DC0AA1F34
S11341F0BB1FEE1FFF1FA217B307E407F50720F04C
S1134200A21BB30BE40BF50B661F771F881F991FC6
S11342101A9469F760957095809590959B01AC010F
S10D4220BD01CF010895F894FFCF0B
S113422A030405031005E807010100010001000168
S113423A00010001000100010054454D503A0020DC
S113424A2020002000686F7572733A2D2D006D6965
S113425A6E757465733A2D2D007365636F6E64739E
S113426A3A2D2D00796561723A2D2D2D2D006D6F31
S113427A6E74683A2D2D006461793A2D2D00780008
S9030000FC
